:020000040800F2
:1000000000000820095C0008C5550008C755000815
:10001000C9550008CB550008CD5500080000000068
:10002000000000000000000000000000713E000819
:10003000CF55000800000000113F0008753F000880
:10004000595C0008595C0008595C0008595C0008BC
:10005000595C0008595C0008595C0008595C0008AC
:10006000595C0008595C0008595C0008595C00089C
:10007000595C0008D1550008595C0008595C00081B
:10008000E1550008595C0008595C0008595C0008FB
:10009000595C0008595C0008595C0008595C00086C
:1000A000595C0008F1550008595C0008595C0008CB
:1000B000595C0008595C0008595C0008595C00084C
:1000C000595C0008595C0008595C0008015600089A
:1000D000595C0008595C0008595C0008595C00082C
:1000E000595C0008595C0008595C0008595C00081C
:1000F000595C0008595C0008595C0008595C00080C
:10010000595C0008595C0008595C0008595C0008FB
:1001100011560008595C0008595C0008595C000839
:100120002156000831560008595C0008595C000847
:10013000595C0008595C0008595C0008595C0008CB
:10014000595C0008595C0008595C0008595C0008BB
:10015000595C0008595C0008595C000841560008C9
:10016000595C0008595C0008595C0008595C00089B
:10017000595C0008595C0008595C00080000000048
:10018000595C0008595C0008595C0008595C00087B
:10019000595C000851560008595C0008595C000879
:1001A000595C0008595C0008595C0008595C00085B
:1001B000595C0008595C0008595C0008595C00084B
:1001C000595C0008595C000800000000595C0008F8
:1001D000595C0008595C0008595C0008595C00082B
:1001E000595C0008595C0008595C0008595C00081B
:0801F000595C0008595C00088D
:1002000010B5054C237833B9044B13B10448AFF350
:1002100000800123237010BD600100200000000059
:10022000705C000808B5034B1BB103490348AFF3EA
:10023000008008BD0000000064010020705C000820
:1002400053B94AB9002908BF00281CBF4FF0FF313D
:100250004FF0FF3000F072B9ADF1080C6DE904CE3B
:1002600000F006F8DDF804E0DDE9022304B0704791
:100270002DE9F047089E04468846002B4BD18A4260
:10028000154667D9B2FA82F24AB1C2F1200701FAE3
:1002900002F320FA07F7954047EA030894404FEA33
:1002A000154E230CB8FBFEF71FFA85FC0EFB1788D2
:1002B00043EA084307FB0CF1994209D9EB1807F10F
:1002C000FF3080F01B81994240F21881023F2B449D
:1002D0005B1AA4B2B3FBFEF00EFB103344EA0344F6
:1002E00000FB0CFCA44509D92C1900F1FF3380F068
:1002F0000781A44540F2048102382C4440EA0740BB
:10030000A4EB0C0400271EB1D4400023C6E900432F
:100310003946BDE8F0878B4209D9002E00F0EB800A
:100320000027C6E9000138463946BDE8F087B3FA30
:1003300083F7002F47D18B4202D3824200F2FA802A
:10034000841A61EB030301209846002EE0D0C6E931
:100350000048DDE702B9FFDEB2FA82F2002A40F07F
:100360008F80491B4FEA154E1FFA85F80127B1FB14
:10037000FEFC230C0EFB1C1143EA014308FB0CF1AD
:10038000994207D9EB180CF1FF3002D2994200F2E2
:10039000CD808446591AA3B2B1FBFEF00EFB1014B7
:1003A00043EA044408FB00F8A04507D92C1900F1E2
:1003B000FF3302D2A04500F2B6801846A4EB080431
:1003C00040EA0C409FE7C7F1200CBB4022FA0CFE2C
:1003D0004EEA030E01FA07F420FA0CF521FA0CF3A9
:1003E0004FEA1E482543B3FBF8F92C0C08FB1933E0
:1003F0001FFA8EFA44EA034309FB0AF49C4202FA0C
:1004000007F200FA07F10BD91EEB030309F1FF30E5
:1004100080F087809C4240F28480A9F102097344F5
:100420001B1BADB2B3FBF8F008FB103345EA0344E5
:1004300000FB0AFAA24508D91EEB040400F1FF33C1
:100440006BD2A24569D90238744440EA0940A0FB46
:100450000289A4EB0A044C45C2464B4654D351D002
:10046000002E69D0B1EB0A0564EB030404FA0CFC1E
:10047000FD40FC404CEA0505C6E90054002747E76B
:10048000C2F1200320FA03F7954001FA02F021FAA5
:1004900003F34FEA154E3843010CB3FBFEF71FFA86
:1004A00085F80EFB173341EA034107FB08F38B4243
:1004B00004FA02F407D9691807F1FF3C2FD28B42E6
:1004C0002DD9023F2944CB1A81B2B3FBFEF00EFBBB
:1004D000103341EA034100FB08F38B4207D9691846
:1004E00000F1FF3C17D28B4215D902382944C91AB2
:1004F00040EA07473BE73746304609E70746E7E665
:100500001846FBE64145ABD2B8EB020A69EB0E0296
:1005100001381346A4E76046E9E7184695E76746C1
:10052000D1E781467CE702382C4447E7ACF1020C66
:100530002B442FE7384608E73746E9E6704700BF07
:1005400070B50D4E0D4CA41BA4100025A54209D179
:100550000B4E0C4C05F08CFBA41BA4100025A542EF
:1005600005D170BD56F8253098470135EEE756F8AD
:10057000253098470135F2E7DC5C0008DC5C0008B8
:10058000DC5C0008E05C000802440346934200D1B2
:10059000704703F8011BF9E7018042804360704710
:1005A0002DE9F04FD0F804E0D2F804A0B0F80090A4
:1005B0004D88B0F802C04FF000085AE0D3ED006A51
:1005C000AC00234492ED006A92ED017A66EE866AF1
:1005D00076EEA77AD3ED006A234427EE267A77EEEB
:1005E000276A93ED007A234492ED026AD2ED037AF2
:1005F00027EE067A37EE267AD3ED006A234467EEBB
:10060000A67A77EE877A1032013880B20028D5D1E9
:100610000CF003000CE092ED007AD3ED006A27EEB7
:10062000267A77EE877A03EB8503013880B20432AD
:100630000028F0D10BF10402CBED007A0136B6B2FE
:100640004B6803EB8603013FBFB237B193464FEAD5
:100650009C007246DFED0B7AD8E7A8441FFA88F8B1
:100660000EEB8C0E09F1FF391FFA89F9B9F1000F71
:1006700005D00AEB880B4B682F460026E7E7BDE85C
:10068000F08F00BF0000000010B443684968526852
:100690000488408800FB04F0840823E0D3ED006A5E
:1006A00091ED007AD3ED017A76EEC76A91ED016A99
:1006B00093ED027A77EEC67A91ED026AC2ED006A96
:1006C000C2ED017AD3ED037AD1ED036A37EE467AB3
:1006D00077EEE67A82ED027AC2ED037A10331031BA
:1006E0001032013C002CD9D100F003000BE0D3ED17
:1006F000007A91ED007A77EEC77AC2ED007A013880
:100700000432043104330028F1D15DF8044B704702
:1007100008B5032000F02EF8002004F015FF04F0C7
:10072000E7FC002008BD0000034A1168034B1B785A
:100730000B441360704700BF0840002000000020F9
:10074000014B1868704700BF0840002038B50446C8
:10075000FFF7F6FF0546B4F1FF3F02D0044B1B78CC
:100760001C44FFF7EDFF401BA042FAD338BD00BF89
:10077000000000200649CB6823F4E0631B041B0C37
:10078000000200F4E0600343024A1A43CA60704763
:1007900000ED00E00000FA0530B4154BDB68C3F350
:1007A0000223C3F10704042C28BF04241D1D062DB9
:1007B00014D9033B4FF0FF3505FA04F421EA040194
:1007C000994005FA03F322EA03031943002807DBE3
:1007D0000901C9B2074B195430BC70470023E9E73F
:1007E00000F00F000901C9B2034B1954F4E700BF30
:1007F00000ED00E000E400E014ED00E000F01F0276
:10080000400901239340024A42F82030704700BF5C
:1008100000E100E030B405682C6824F480242C60EA
:10082000046863608368402B05D00368996003689F
:10083000DA6030BC704703689A600368D960F8E7F3
:100840000268D3B2103B0949A1FB03131B090849F5
:10085000C95CC165032B04D8064B13408365806DCA
:100860007047044B134004338365F8E7ABAAAAAA88
:10087000885C000800FCFFFF836A826992B9012B43
:100880000AD01BB1022B01D000207047C36A13F0BD
:10089000807F2CD100207047C36AB3F1C07F28D07D
:1008A00000207047B2F5005F05D0022B29D9032B39
:1008B00015D000207047032B03D8DFE803F01C0499
:1008C0001C0A00207047C36A13F0807F15D10020F6
:1008D0007047C36AB3F1C07F11D000207047C36A6C
:1008E00013F0807F01D00120704700207047012065
:1008F0007047012070470120704701207047012098
:10090000704701207047000070B50446FFF718FFDC
:10091000002C5BD00546002384F83430022384F891
:1009200035302268136823F00103136023681A68C6
:1009300012F0010F0AD0FFF703FF401B0528F5D97D
:1009400020236365032084F8350070BD1A682048B1
:1009500010406168A2680A43E1680A4321690A43BA
:1009600061690A43A1690A43E1690A43216A0A43AA
:100970000243616A04291ED01A602668756925F051
:100980000705636A1D43042B07D1A36A1D43E36A6D
:100990001BB12046FFF770FF90B975612046FFF745
:1009A0004FFFE26D3F239340836000206065012389
:1009B00084F83530C9E7E16A206B01430A43DBE77D
:1009C00040236365012084F83500BEE70120BCE7C1
:1009D0003F8010E038B5856D90F83440012C31D05F
:1009E000012480F8344090F83540E4B2012C04D062
:1009F000002380F83430022038BD0446022084F8F9
:100A00003500002060652046FFF704FFE26D3F23BC
:100A10009340AB602268136843F0160313602268AA
:100A2000536943F080035361236C23B12268136838
:100A300043F0080313602268136843F00103136056
:100A40000020D9E70220D7E790F83530DBB2022B3F
:100A500003D08023436501207047052380F835309B
:100A60000268136823F00103136000207047000040
:100A7000F0B583B0044600230193724B1D68724B9E
:100A8000A3FB0535AD0A876D3E68C26D0823934010
:100A9000334210D003681A6812F0040F0BD01A68A2
:100AA00022F004021A60C26D08239340BB60436DBC
:100AB00043F001034365E26D01239340334209D0C3
:100AC0002268526912F0800F04D0BB60636D43F05E
:100AD00002036365E26D04239340334209D0226828
:100AE000126812F0020F04D0BB60636D43F0040380
:100AF0006365E26D10239340334224D0226812686C
:100B000012F0080F1FD0BB6023681A6812F4802F00
:100B10000DD01B6813F4002F04D1236C9BB1204629
:100B2000984710E0A36C73B1204698470BE01A6811
:100B300012F4807F03D11A6822F008021A60236C35
:100B40000BB120469847E26D20239340334255D0A5
:100B50002268126812F0100F50D0BB6094F8353044
:100B6000DBB2052B0ED023681A6812F4802F33D025
:100B70001B6813F4002F2AD1636C002B3ED0204653
:100B800098473BE02268136823F01603136022683D
:100B9000536923F080035361236CA3B12268136867
:100BA00023F008031360E26D3F239340BB600023F2
:100BB00084F83430012384F83530236D002B3FD086
:100BC000204698473CE0A36C002BE7D1EBE7E36BB2
:100BD000A3B12046984711E01A6812F4807F09D12A
:100BE0001A6822F010021A60002384F834300123BE
:100BF00084F83530E36B0BB120469847636DFBB149
:100C0000636D13F0010F17D0052384F83530226887
:100C1000136823F001031360019B01330193AB427E
:100C200004D823681B6813F0010FF5D1002384F862
:100C30003430012384F83530E36C0BB120469847FB
:100C400003B0F0BD0C000020B5814E1B00230F2B1C
:100C500000F2E280F0B482B039E0092200E0002224
:100C6000B2403A4302346D4E46F824206C4A146870
:100C7000EA4302EA04064F6817F4803F01D045EAD0
:100C80000406674C2660646802EA04064F6817F49D
:100C9000003F01D045EA0406614C6660A46802EAA0
:100CA00004064F6817F4801F01D045EA04065C4C27
:100CB000A660E46822404E6816F4001F01D045EAA1
:100CC0000402574CE26001330F2B00F2A280012294
:100CD0009A400C6804EA0205AA42F4D14C68122C2E
:100CE00018BF022C10D1DE08083650F826C003F0D9
:100CF0000704A7000F24BC402CEA040C0C69BC407C
:100D000044EA0C0440F8264004685F000326BE4015
:100D1000F64306EA040C4C6804F00304BC4044EAC1
:100D20000C0404604C6804F1FF3C112C18BFBCF1AA
:100D3000010F01D9122C11D1846806EA040CCC6889
:100D4000BC4044EA0C048460446824EA020C4C6809
:100D5000C4F300129A4042EA0C024260C268164094
:100D60008A68BA403243C2604A6812F0805FAAD0F3
:100D70002C4A546C44F480445464526C02F4804213
:100D80000192019A9C08A61C244A52F8267003F08E
:100D9000030296000F22B24027EA0207224A90423D
:100DA0003FF45DAF02F58062904222D002F580628E
:100DB000904220D002F5806290421ED002F58062FF
:100DC00090421CD002F5806290421AD002F58062F7
:100DD000904218D002F58062904216D002F58062EF
:100DE000904214D002F5806290423FF436AF0A225E
:100DF00036E7012234E7022232E7032230E70422F9
:100E00002EE705222CE706222AE7072228E70822F8
:100E100026E702B0F0BC7047704700BF00380140C1
:100E2000003C0140003802400000024012B90904B1
:100E3000816170478161704700287DD0F0B58BB02B
:100E4000044690F8BD33E3B1032384F8BD33206832
:100E500002F09CFA254655F8107B6E460FCD0FC662
:100E60000FCD0FC695E8030086E80300231D0ECBC7
:100E7000384602F04DFA0021206802F08DFA002376
:100E80001AE080F8BC3304F017FBDDE7D900C81A7C
:100E900082002244012082F83D0082F83C30A2F812
:100EA0004230002082F83F0050649064CA1A9100DA
:100EB000214408650133DBB20E2BE7D9002315E08E
:100EC000D800C11A8A002244002182F8FD1182F85C
:100ED000FC3182F8FF11C2F80412C2F80812C21ADB
:100EE00090002044C0F810120133DBB20E2BE7D97A
:100EF000254655F8107B6E460FCD0FC60FCD0FC699
:100F000095E8030086E80300231D0ECB384602F067
:100F100089FA002384F83830012384F8BD33636AEA
:100F2000012B05D0206802F04FFB00200BB0F0BD74
:100F3000204600F003F8F5E70120704702460368F9
:100F40000121C0F8F813002082F8F0039A6942F0FA
:100F500000629A61596D024A0A435A65704700BFA0
:100F600003000010024A136843F480731360704753
:100F70000070004010B582B01B4B1A6C42F08052DA
:100F80001A641B6C03F080530193019B174A13688A
:100F900043F480331360FFF7D3FB0446134B5B68C5
:100FA00013F4803F08D1FFF7CBFB001BB0F57A7F2D
:100FB000F4D9032002B010BD0C4A136843F4003387
:100FC0001360FFF7BDFB0446084B5B6813F4003F5A
:100FD00007D1FFF7B5FB001BB0F57A7FF4D90320EA
:100FE000E8E70020E6E700BF00380240007000405C
:100FF000002800F0DC8170B582B00446036813F06D
:10100000010F29D0A24B9B6803F00C03042B1AD0CC
:101010009F4B9B6803F00C03082B0FD06368B3F55C
:10102000803F40D0002B54D1994B1A6822F4803273
:101030001A601A6822F480221A6039E0944B5B68C7
:1010400013F4800FEAD0924B1B6813F4003F03D0D7
:101050006368002B00F0AD81236813F0020F75D098
:101060008B4B9B6813F00C0F5ED0894B9B6803F091
:101070000C03082B53D0E368002B00F08A80844ACD
:10108000136843F001031360FFF75AFB0546804BDA
:101090001B6813F0020F73D1FFF752FB401B0228AD
:1010A000F5D9032088E17A4A136843F4803313604A
:1010B00063682BB3FFF744FB0546754B1B6813F4BD
:1010C000003FC9D1FFF73CFB401B6428F5D9032042
:1010D00072E1B3F5A02F09D06D4B1A6822F480326B
:1010E0001A601A6822F480221A60E1E7684B1A68D5
:1010F00042F480221A601A6842F480321A60D7E7FC
:10110000FFF71EFB0546624B1B6813F4003FA3D09C
:10111000FFF716FB401B6428F5D903204CE15C4B1C
:101120005B6813F4800FA6D1594B1B6813F0020FB4
:1011300004D0E368012B01D001203DE1544A13683B
:1011400023F0F803216943EAC1031360236813F015
:10115000080F46D0636983B34D4A536F43F00103D0
:101160005367FFF7EDFA0546494B5B6F13F0020F2B
:1011700037D1FFF7E5FA401B0228F5D903201BE120
:10118000434A136823F0F803216943EAC10313605B
:10119000DCE73F4A136823F001031360FFF7D0FA3E
:1011A00005463B4B1B6813F0020FCFD0FFF7C8FA80
:1011B000401B0228F5D90320FEE0354A536F23F087
:1011C00001035367FFF7BCFA0546314B5B6F13F021
:1011D000020F06D0FFF7B4FA401B0228F5D903200E
:1011E000EAE0236813F0040F7ED0294B1B6C13F048
:1011F000805F1ED1264B1A6C42F080521A641B6C21
:1012000003F080530193019B0125224B1B6813F4CB
:10121000807F10D0A368012B21D0002B3CD11C4B28
:101220001A6F22F001021A671A6F22F004021A677D
:101230001AE00025E9E7174A136843F48073136046
:10124000FFF77EFA0646134B1B6813F4807FE1D14B
:10125000FFF776FA801B6428F5D90320ACE00C4A2E
:10126000136F43F001031367A3685BB3FFF768FADA
:101270000646074B1B6F13F0020F34D1FFF760FADD
:10128000801B41F288339842F3D9032094E000BFD9
:101290000038024000700040052B09D0484B1A6FFF
:1012A00022F001021A671A6F22F004021A67DBE7C4
:1012B000434B1A6F42F004021A671A6F42F00102A0
:1012C0001A67D1E7FFF73CFA06463D4B1B6F13F058
:1012D000020F08D0FFF734FA801B41F2883398429E
:1012E000F3D9032068E0F5B9A369002B63D0344A31
:1012F000926802F00C02082A60D0022B19D0304A02
:10130000136823F080731360FFF71AFA04462C4B1E
:101310001B6813F0007F48D0FFF712FA001B022869
:10132000F5D9032048E0264A136C23F08053136458
:10133000DAE7234A136823F080731360FFF700FA9B
:1013400005461F4B1B6813F0007F06D0FFF7F8F926
:10135000401B0228F5D903202EE0E369226A1343DB
:10136000626A43EA8213A26A5208013A43EA0243DC
:10137000E26A43EA0263226B43EA0273104A536053
:10138000136843F080731360FFF7DAF904460C4BDF
:101390001B6813F0007F06D1FFF7D2F9001B02286B
:1013A000F5D9032008E0002006E0002004E0012039
:1013B0007047012000E0002002B070BD0120FBE773
:1013C00000380240324B9B6803F00C03042B5CD0C6
:1013D000082B01D02F4870472DE9F04B2C4B5A6851
:1013E00002F03F025B6813F4800F2BD0284B5B6840
:1013F000C3F388131E4600275C010025E41A65EB41
:101400000705A90141EA9461A001001B61EB0501F8
:10141000CB0043EA5073C400A01943EB07014B0211
:1014200043EAD0534402204619460023FEF708FF42
:10143000174B5B68C3F3014301335B00B0FBF3F070
:10144000BDE8F08B124B5B68C3F388131E46002780
:101450005C010025E41A65EB0705A90141EA9461E6
:10146000A001001B61EB0501CB0043EA5073C400EF
:10147000A01943EB07018B0243EA905384022046F4
:1014800019460023FEF7DCFED2E70348704700BF91
:10149000003802400024F40000127A00002800F016
:1014A000A28070B50446524B1B6803F00F038B42B9
:1014B0000CD24F4A136823F00F030B4313601368D9
:1014C00003F00F038B4201D0012070BD236813F09D
:1014D000020F17D013F0040F04D0464A936843F468
:1014E000E0539360236813F0080F04D0414A9368D7
:1014F00043F4604393603F4A936823F0F003A0688D
:10150000034393600D46236813F0010F31D06368E5
:10151000012B20D0022B25D0364A126812F0020F80
:1015200063D034498A6822F0030213438B60FFF7CB
:1015300007F906462F4B9B6803F00C036268B3EB78
:10154000820F16D0FFF7FCF8801B41F288339842D7
:10155000F0D90320B9E7274A126812F4003FE0D11E
:101560000120B2E7234A126812F0007FD9D101208E
:10157000ABE71F4B1B6803F00F03AB420CD91C4AAF
:10158000136823F00F032B431360136803F00F035A
:10159000AB4201D0012098E7236813F0040F06D076
:1015A000144A936823F4E053E1680B439360236883
:1015B00013F0080F07D00F4A936823F460432169A2
:1015C00043EAC1039360FFF7FDFE0A4B9B68C3F338
:1015D0000313094AD35CD840084B1860002003F07D
:1015E000B3FF002071E70120704701206DE700BFC5
:1015F000003C024000380240A45C00080C000020BF
:10160000014B1868704700BF0C00002008B5FFF7B9
:10161000F7FF044B9B68C3F38223034AD35CD84093
:1016200008BD00BF00380240B45C000808B5FFF7F1
:10163000E7FF044B9B68C3F34233034AD35CD840B3
:1016400008BD00BF00380240B45C00080F230360EF
:101650000B4B9A6802F0030242609A6802F0F002B3
:1016600082609A6802F4E052C2609B68DB0803F46F
:10167000E0530361034B1B6803F00F030B607047DB
:1016800000380240003C0240F0B583B004460368D5
:1016900013F0010F0CD0B54B9A6822F400029A6047
:1016A0009A68416B0A439A60436BC3B1002600E01D
:1016B0000026236813F4002F15D0AC4AD2F88C30E2
:1016C00023F44013E16B0B43C2F88C30E36BB3F5AA
:1016D000801F06D0002B00F04581002504E0012684
:1016E000E7E70126F6E70025236813F4801F0FD0F3
:1016F0009E4AD2F88C3023F44003216C0B43C2F88D
:101700008C30236CB3F5800F00F02E8103B90125D6
:10171000236813F0807F00D0012613F0200F40F0E3
:101720002781236813F0100F0CD0904BD3F88C2036
:1017300022F08072C3F88C20D3F88C20A16B0A436E
:10174000C3F88C20236813F4804F08D0874AD2F85E
:10175000903023F44033616E0B43C2F8903023681D
:1017600013F4004F08D0814AD2F8903023F440237C
:10177000A16E0B43C2F89030236813F4803F08D069
:101780007A4AD2F8903023F44013E16E0B43C2F84A
:101790009030236813F4003F08D0744AD2F8903098
:1017A00023F44003216F0B43C2F89030236813F0F9
:1017B000400F08D06D4AD2F8903023F00303616CDB
:1017C0000B43C2F89030236813F0800F08D0674AAB
:1017D000D2F8903023F00C03A16C0B43C2F8903088
:1017E000236813F4807F08D0604AD2F8903023F049
:1017F0003003E16C0B43C2F89030236813F4007F90
:1018000008D05A4AD2F8903023F0C003216D0B4320
:10181000C2F89030236813F4806F08D0534AD2F88E
:10182000903023F44073616D0B43C2F8903023680D
:1018300013F4006F08D04D4AD2F8903023F440637F
:10184000A16D0B43C2F89030236813F4805F08D079
:10185000464AD2F8903023F44053E16D0B43C2F86E
:101860009030236813F4005F08D0404AD2F89030DB
:1018700023F44043216E0B43C2F89030236813F4E5
:10188000800F08D0394AD2F8903023F08063A16FDE
:101890000B43C2F89030236813F4001F0DD0334A75
:1018A000D2F8903023F00063E16F0B43C2F8903020
:1018B000E36FB3F1006F00F0C180236813F0080FED
:1018C00000D0012513F4802F08D0284AD2F8903098
:1018D00023F04073616F0B43C2F89030236813F418
:1018E000000F09D0214AD2F8903023F08053D4F869
:1018F00080100B43C2F89030236813F0806F09D03A
:101900001A4AD2F8903023F00053D4F884100B43D5
:10191000C2F89030236813F0006F09D0134AD2F850
:101920008C3023F00073D4F888100B43C2F88C304D
:10193000236813F0805F09D00C4AD2F88C3023F072
:101940008063D4F88C100B43C2F88C30002E77D112
:101950002368B3F1007F73D0002D40F00481002094
:1019600003B0F0BD0125BFE60126CFE600380240F6
:10197000B74B1A6C42F080521A641B6C03F0805310
:101980000193019BB34A136843F480731360FEF71D
:10199000D7FE0746AF4B1B6813F4807F06D1FEF7D6
:1019A000CFFEC01B6428F5D90320D9E7A84B1B6FD5
:1019B00013F4407315D0226B02F440729A4210D097
:1019C000A34B1A6F22F44072196F41F480311967EA
:1019D000196F21F4803119671A671B6F13F0010F1B
:1019E00012D1236B03F44072B2F5407F1DD0984AA8
:1019F000936823F4F813936095490B6F226BC2F33D
:101A00000B0213430B678CE6FEF79AFE0746904BDA
:101A10001B6F13F0020FE4D1FEF792FEC01B41F2E0
:101A200088339842F3D903209AE78948826822F4E0
:101A3000F812894919400A438260DDE701253CE735
:101A4000834A136823F080631360FEF779FE06462D
:101A50007F4B1B6813F0006F06D0FEF771FE801BF2
:101A60006428F5D903207BE7236813F0010F13D016
:101A7000636B8BB9764AD2F88430D2F884106068F0
:101A800003F4403343EA801301F070610B43A16813
:101A900043EA0173C2F88430236813F4002F03D0A3
:101AA000E26BB2F5801F06D013F4801F1ED0236CAA
:101AB000B3F5800F1AD1664AD2F88430D2F8841078
:101AC000606803F4403343EA8013E06843EA00634C
:101AD00001F0E0410B43C2F88430D2F88C3023F09F
:101AE0001F03616A01390B43C2F88C30236813F07D
:101AF000807F11D0564AD2F88400D2F884106668EC
:101B000023691B0443EA861300F07060034301F06D
:101B1000E0410B43C2F88430236813F0007F0DD0FE
:101B2000626823691B0443EA8213E26843EA0263A2
:101B3000A26843EA0273464AC2F88430444A1368F2
:101B400043F080631360FEF7FBFD0646404B1B68C5
:101B500013F0006F7FF400AFFEF7F2FD801B6428E6
:101B6000F4D90320FCE63A4A136823F0805313604B
:101B7000FEF7E6FD0546364B1B6813F0005F06D006
:101B8000FEF7DEFD401B6428F5D90320E8E6236854
:101B900013F4002F01D0E26B22B113F4801F1DD08B
:101BA000236CDBB92A4AD2F88830D2F888106069F1
:101BB00003F4403343EA8013A06943EA006301F071
:101BC000E0410B43C2F88830D2F88C3023F4F8534C
:101BD000A16A013943EA0123C2F88C30236813F467
:101BE000001F03D0E36FB3F1006F37D0236813F009
:101BF000080F19D0164AD2F88810D2F888306069D8
:101C000003F4403343EA801301F070610B43E16950
:101C100043EA0173C2F88830D2F88C3023F44033A1
:101C2000E16A0B43C2F88C30094A136843F08053D1
:101C30001360FEF785FD0446054B1B6813F0005F3B
:101C40001FD1FEF77DFD001B6428F5D9032087E630
:101C50000038024000700040FFFCFF0F0A4AD2F833
:101C60008800D2F888106569236A1B0443EA85134B
:101C700000F07060034301F0E0410B43C2F888308C
:101C8000B4E700206CE600BF00380240F8B5054616
:101C90000F4616461C462B689B683B40B34238D023
:101CA000B4F1FF3FF7D02CB1FEF74AFD069BC01AF6
:101CB000A042F0D32A68536823F0E00353606B68B6
:101CC000B3F5827F0BD0AB6AB3F5005F14D001236C
:101CD00085F85D30002385F85C3003201AE0AB689E
:101CE000B3F5806F18BFB3F5004FECD12A681368C5
:101CF00023F040031360E6E72A68136823F40053D7
:101D00001B041B0C13602A68136843F40053136010
:101D1000DDE70020F8BDF0B583B007460D46144658
:101D20001E4602E0B6F1FF3F10D13A6893682B409F
:101D3000A34241D0B5F5C06F08BF002CF2D1137B90
:101D4000DBB28DF807309DF80730EBE72EB1FEF7D8
:101D5000F7FC089BC01AB042E7D33A68536823F0F7
:101D6000E00353607B68B3F5827F0BD0BB6AB3F5A9
:101D7000005F14D0012387F85D30002387F85C30C2
:101D800003201AE0BB68B3F5806F18BFB3F5004FAE
:101D9000ECD13A68136823F040031360E6E73A6831
:101DA000136823F400531B041B0C13603A68136878
:101DB00043F400531360DDE7002003B0F0BD70B5BD
:101DC00082B004460D46164600920B4600224FF4A0
:101DD000C051FFF7A0FFB8B900962B460022802122
:101DE0002046FFF753FFB8B900962B4600224FF468
:101DF000C0612046FFF78FFF034650B1236E43F0CA
:101E000020032366032304E0236E43F020032366AC
:101E10000323184602B070BD236E43F020032366EF
:101E20000323F6E770B582B004460D4616464368B4
:101E3000B3F5827F0FD000962B46002280212046EA
:101E4000FFF724FF034698B96268B2F5827F15D088
:101E5000184602B070BD8368B3F5806F18BFB3F544
:101E6000004FE8D10268136823F040031360E2E7F3
:101E7000236E43F0200323660323E9E7A268B2F54B
:101E8000806F18BFB2F5004FE2D100962B460022BA
:101E90004FF4C0612046FFF73EFF03460028D7D02D
:101EA000236E43F0200323660323D1E7002858D094
:101EB00010B504460023836290F85D30002B45D0B6
:101EC000022384F85D302268136823F04003136016
:101ED000E368B3F5E06F3ED90022B3F5706F18BF29
:101EE000B3F5E06F01D00021A162216B21B9B3F5F8
:101EF000E06F33D9022323636368A1680B43216930
:101F00000B4361690B43A16901F400710B43E16963
:101F10000B43216A0B43A06A216803430B60638B68
:101F200003F00403616A0B43616B0B43E1680B43ED
:101F3000216813434B602268D36923F40063D361A3
:101F400000202066012384F85D3010BD80F85C30ED
:101F500003F0EEF8B4E74FF48052BEE701232363A9
:101F6000CAE7012070472DE9F04182B01E4690F883
:101F70005C30012B00F0AC8004460D4690460123F6
:101F800080F85C30FEF7DCFB074694F85D30DBB28E
:101F9000012B09D00220012384F85D30002384F84E
:101FA0005C3002B0BDE8F081B8FA88F35B09002D1F
:101FB00008BF0123002B40F08380032384F85D30A9
:101FC00000232366A563A4F83C80A4F83E80236424
:101FD000A4F84430A4F846302365E364A368B3F55D
:101FE000004F0DD023681A6812F0400F03D11A6811
:101FF00042F040021A60E368B3F5E06F0BD82FE0BF
:102000002268136843F480431360EBE7002E59D035
:10201000B6F1FF3F10D1E38F9BB2002B3BD023687A
:102020009A6812F0020FF1D035F8022BDA60E38FD4
:10203000013B9BB2E387EEE7FEF782FBC01BB04299
:10204000E9D30320A7E72A781A73E38F013B9BB2F9
:10205000E387013504E0002E36D0B6F1FF3F13D1FF
:10206000E38F9BB2BBB123689A6812F0020FF2D0E3
:10207000E28F92B2012AE6D935F8022BDA60E38FBB
:10208000023B9BB2E387EBE7FEF75AFBC01BB04273
:10209000E6D303207FE73A4631462046FFF78FFE1E
:1020A00008B120232366A36833B901932368DA6853
:1020B00001929B680193019B236E3BB900206AE764
:1020C000012068E7032066E7032064E7012062E758
:1020D000022066E730B490F85C40012C6ED00124F9
:1020E00080F85C4090F85D40E4B24568012C10D067
:1020F000B5F5827F06D00223002280F85C201846C6
:1021000030BC70478568002D50D1042C01D00223CB
:10211000F2E7B2FA82F46409002908BF0124002C16
:1021200046D1002B46D090F85D40E4B2042C02D09A
:10213000052480F85D400024046681638387C3879B
:102140000264A0F84430A0F84630C368B3F5E06FED
:1021500021D91B4BC3641B4B0365C368B3F5E06F08
:1021600004D8B0F846309BB2012B19D902685368E5
:1021700023F4805353600268536843F0E0035360D4
:1021800003681A6812F0400F16D11A6842F0400234
:102190001A600023B0E70C4BC3640C4B0365DCE70B
:1021A0000268536843F480535360E4E70223A3E7D3
:1021B0000123A1E701239FE700239DE702239EE778
:1021C000AD24000875240008FF230008A923000897
:1021D00010B50446806818B96368B3F5827F10D0E3
:1021E00094F85C0001285CD0012384F85C3094F8FA
:1021F0005D00C0B298420DD00220002384F85C300C
:1022000010BD13462046042284F85D200A46FFF7DD
:1022100061FFF5E7B2FA82F35B09002908BF0123E9
:10222000002B3AD1042384F85D3000232366216417
:10223000A4F84420A4F84620A363A387E38723657A
:10224000E368B3F5E06F1AD92268536823F480532A
:102250005360154BE364A368B3F5004F17D02268B1
:10226000536843F06003536023681A6812F0400F0C
:1022700015D11A6842F040021A600020BDE72268BA
:10228000536843F480535360084BE364E3E72268E8
:10229000136823F480431360E1E70120ADE70020D9
:1022A000ABE70220ACE700BF1F230008F5220008BF
:1022B0007047704710B504460268536823F0600306
:1022C0005360FEF73DFA024664212046FFF7AAFD5F
:1022D00018B1236E43F020032366012384F85D3098
:1022E000236E1BB12046FFF7E4FF10BD204602F02D
:1022F000D9FEFAE708B50268036C591C0164127B29
:102300001A70B0F84630013B9BB2A0F84630B0F8E6
:1023100046309BB203B108BDFFF7CCFFFBE708B521
:102320000368DA68036C1A80036C02330364B0F844
:102330004630013B9BB2A0F84630B0F846309BB225
:1023400003B108BDFFF7B6FFFBE710B50446FEF783
:10235000F7F92268536823F0200353600246642192
:102360002046FFF72CFD18B1236E43F020032366AF
:10237000236E93B994F85D30DBB2042B06D00123B1
:1023800084F85D302046FFF793FF10BD012384F8E9
:102390005D30204602F086FEF7E7012384F85D30C9
:1023A0002046FFF786FFF0E708B5C38F9BB2012BED
:1023B00017D9826B03681288DA60836B02338363F8
:1023C000C38F023B9BB2C387C38F9BB243B90268E2
:1023D000536823F080035360B0F846309BB25BB182
:1023E00008BD836B5A1C826302681B781373C38F0A
:1023F000013B9BB2C387E7E7FFF7A7FFF0E708B50C
:10240000B0F846309BB2012B24D90368DA68036C1C
:102410001A80036C02330364B0F84630023B9BB26F
:10242000A0F84630B0F846309BB2012B0CD0B0F883
:1024300046309BB23BB90268536823F06003536097
:10244000C38F9BB29BB108BD0268536843F48053AD
:102450005360ECE70268036C591C0164127B1A702C
:10246000B0F84630013B9BB2A0F84630DFE7FFF7FB
:102470006CFFE8E708B5826B03681288DA60836B4B
:1024800002338363C38F013B9BB2C387C38F9BB26D
:1024900043B90268536823F080035360B0F84630B4
:1024A0009BB203B108BDFFF750FFFBE708B5036817
:1024B000DA68036C1A80036C02330364B0F84630A8
:1024C000013B9BB2A0F84630B0F846309BB23BB916
:1024D0000268536823F040035360C38F9BB203B17B
:1024E00008BDFFF732FFFBE710B584B00446026871
:1024F0005068936803F0410101290AD013F0020FDC
:102500000ED010F0800F0BD0236D2046984704B0FA
:1025100010BD10F0400FF1D0E36C20469847F6E76D
:1025200013F4B07FF3D010F0200FF0D013F0400F71
:102530000FD094F85D10C9B203294AD0216E41F042
:102540000401216600210091D168009191680091F9
:10255000009913F0200F0CD0216E41F0010121668B
:102560000021029191680291116821F040011160EF
:10257000029A13F4807F09D0236E43F00803236688
:102580000023039323689B680393039B236E002B14
:10259000BDD02268536823F0E0035360012384F820
:1025A0005D3010F0030F1CD02268536823F0030342
:1025B0005360A36D23B10D4A1A65A06DFEF744FA6E
:1025C000636D002BA3D0094A1A65606DFEF73CFAD3
:1025D0009DE700230193D368019393680193019BC6
:1025E00095E72046FFF765FE91E700BFF12500085B
:1025F00008B5806B0023A0F84630C387FFF759FE6B
:1026000008BD90F85D00704770470268D36843F0DA
:102610000103D3600268136843F0010313600020D4
:102620007047704770477047704710B5044603689D
:102630001A6912F0020F11D0DA6812F0020F0DD0F1
:102640006FF002021A610123037703689B6913F09C
:10265000030F79D0FFF7E6FF0023237723681A6979
:1026600012F0040F12D0DA6812F0040F0ED06FF0DF
:1026700004021A610223237723689B6913F4407FC5
:1026800068D02046FFF7CEFF0023237723681A691E
:1026900012F0080F12D0DA6812F0080F0ED06FF0A7
:1026A00008021A61042323772368DB6913F0030F00
:1026B00057D02046FFF7B6FF0023237723681A6917
:1026C00012F0100F12D0DA6812F0100F0ED06FF067
:1026D00010021A61082323772368DB6913F4407F13
:1026E00046D02046FFF79EFF0023237723681A6910
:1026F00012F0010F03D0DA6812F0010F3FD1236806
:102700001A6912F0800F03D0DA6812F0800F3DD101
:1027100023681A6912F4807F03D0DA6812F0800F00
:102720003BD123681A6912F0400F03D0DA6812F027
:10273000400F39D123681A6912F0200F03D0DA68EC
:1027400012F0200F37D110BDFFF76BFF2046FFF7C7
:102750006AFF81E72046FFF764FF2046FFF763FF2B
:1027600092E72046FFF75DFF2046FFF75CFFA3E7F7
:102770002046FFF756FF2046FFF755FFB4E76FF0FE
:1027800001021A61204602F0A5FCB8E76FF0800252
:102790001A61204600F0B6F8BAE76FF080021A61BD
:1027A000204600F0AFF8BCE76FF040021A61204607
:1027B000FFF73AFFBEE76FF020021A61204600F0F3
:1027C000A0F8C0E770B403683A4CA04214BF0024DC
:1027D0000124B0F1804F14BF224644F00102AAB98F
:1027E000354DA84214BF00250125344EB0420DD00E
:1027F00065B905F1804505F58235A84214BF00256D
:10280000012506F50066B04200D01DB123F070032B
:102810004D682B43002A33D1274A904214BF00222F
:102820000122264DA8422BD052BB02F1804202F574
:102830008232904214BF0022012205F50065A842B1
:102840001ED0EAB91E4A904214BF0022012205F5AB
:102850009A35A84214D09AB91A4A904214BF00225D
:10286000012205F50065A8420AD04AB9164A9042ED
:1028700014BF00220122A5F59635A84200D01AB156
:1028800023F44073CA68134323F080034A69134357
:1028900003608A68C2620A6882620C4B984214BF65
:1028A000234644F001030BB10B6903630123436129
:1028B00070BC704700000140000800400004004068
:1028C0000044014000180040002000400004014086
:1028D000A8B110B5044690F83D305BB1022384F8EE
:1028E0003D30211D2068FFF76DFF012384F83D3046
:1028F000002010BD80F83C30FFF786FEEEE7012097
:1029000070477047704790F86930DBB2212B2ED1A9
:10291000B0F852309BB28BB18368B3F5805F19D0A9
:10292000C36C5A1CC2641A7803689A62B0F85230B9
:10293000013B9BB2A0F85230002070470268136838
:1029400023F0800313600268136843F040031360B0
:10295000002070470369002BE2D1C36C1B8802681A
:10296000C3F308039362C36C0233C364DEE702203F
:1029700070470268136823F0C0031360202380F8B7
:10298000693070470268136823F49073136002681B
:10299000936823F001039360202380F86A30704726
:1029A00038B590F86A50EDB2202D3BD1B2FA82F5DD
:1029B0006D09002908BF0125002D35D190F8683038
:1029C000012B33D013460A460446012180F86810D3
:1029D0004265A0F85830C566222180F86A10416E21
:1029E0001348C863616E13480864616E1248C86476
:1029F000616E0D6521682431606EFDF7EBFF84F890
:102A000068502268136843F48073136022689368E7
:102A100043F0010393602268936843F0400393609E
:102A2000284600E0022038BD0120FCE70220FAE73A
:102A30008D2B0008512C00085D2C00082DE9F04179
:102A400005460F4616469846069C2B68DB6937EA12
:102A500003030CBF01230023B3421DD1B4F1FF3F98
:102A6000F3D02CB1FDF76CFEA0EB0800A042ECD334
:102A70002A68136823F4D07313602A68936823F0DC
:102A800001039360202385F8693085F86A300023BC
:102A900085F86830032000E00020BDE8F0812DE9D2
:102AA000F04182B01E4690F86930DBB2202B52D143
:102AB00004460D469046B2FA82F35B09002908BF2E
:102AC0000123002B4CD190F86830012B4AD0012310
:102AD00080F868300023C366212380F86930FDF751
:102AE0002FFE0746A4F85080A4F8528003E02A780D
:102AF00023689A620135B4F852309BB2DBB1B4F866
:102B00005230013B9BB2A4F8523000963B46002263
:102B100080212046FFF792FF30BBA368B3F5805FAA
:102B2000E5D12369002BE2D135F8023B2268C3F3DB
:102B300008039362DFE700963B46002240212046CF
:102B4000FFF77CFF034688B9202284F86920002221
:102B500084F8682000E00223184602B0BDE8F08146
:102B60000123F9E70223F7E70323F5E70323F3E75C
:102B7000704708B501680B6823F040030B60202301
:102B800080F86930FFF7F4FF002008BD08B5836BBB
:102B90000268126812F4807F14D10022A3F85A2030
:102BA00019680A6822F480720A6019688A6822F03B
:102BB00001028A6019688A6822F040028A60202235
:102BC00083F86A20184601F0C3FD08BDB0F85C2008
:102BD00090F86A30DBB2222B32D110B58368B3F59E
:102BE000805F10D00368596AD2B2436D5C1C4465A3
:102BF0000A401A70B0F85A30013B9BB2A0F85A3024
:102C00006BB1002010BD0369002BEBD1436D01684F
:102C1000496A0A401A80436D02334365EAE7026855
:102C2000136823F4907313600268936823F0010320
:102C30009360202380F86A3001F08AFD0020E1E7EC
:102C40000268936943F0080393610220704770475C
:102C500008B5806BFFF7FBFF08BD704710B5846BAC
:102C60000023A4F85A30A4F8523094F86930DBB24B
:102C7000212B0CD094F86A30DBB2222B10D0E36EFB
:102C800043F01003E3662046FFF7E7FF10BD23681B
:102C90009B6813F0800FEDD02046FFF76AFEE9E74E
:102CA00023689B6813F0400FE9D02046FFF76AFEC7
:102CB000E5E7000038B504460268D36910689168FA
:102CC00013F00F0505D113F0200F02D010F0200FE4
:102CD0005FD1002D73D011F0010102D110F4907F6B
:102CE0006DD013F0010F07D010F4807F04D00125C0
:102CF0001562E26E2A43E26613F0020F07D031B18B
:102D0000226802251562E26E42F00402E26613F0C8
:102D1000040F07D031B1226804251562E26E42F03B
:102D20000202E26613F0080F09D010F0200F00D164
:102D300029B1226808211162E26E0A43E266E26E5E
:102D4000002A48D013F0200F02D010F0200F24D119
:102D5000E36E13F0080F04D123689B6813F0400F53
:102D600027D02046FFF70EFE23689A6812F0400F26
:102D70001BD09A6822F040029A60636E8BB11A4AA7
:102D80001A65606EFDF760FE28B3606E036D9847AC
:102D900021E02046FFF71AFF1DE02046FFF716FF4F
:102DA000D6E72046FFF759FF15E02046FFF755FF0D
:102DB00011E02046FFF751FF0023E3660BE013F01C
:102DC000800F02D010F0800F06D113F0400F02D018
:102DD00010F0400F04D138BD2046FFF794FDFAE70C
:102DE0002046FFF7C6FEF6E7ED2D000808B5806B1C
:102DF0000023A0F85A30A0F85230FFF72EFF08BD8C
:102E000010B5044683680269134342691343C269DB
:102E10001343016808689D4A024013430B6022680F
:102E2000536823F44053E1680B435360A369226A5B
:102E30001A4321688B6823F4306313438B60236843
:102E4000934A934219D0934A93422AD0924A93428A
:102E500040D0924A934255D0914A93426AD0914AC7
:102E6000934200F08280904A934200F099808F4A0A
:102E7000934200F0B0801022C9E002F59432D2F8FB
:102E8000902002F00302032A03D8DFE802F0BF0615
:102E900004081022BBE00222B9E00422B7E00822B5
:102EA000B5E002F5FA32D2F8902002F00C020C2ABA
:102EB00008D8DFE802F0BA0707070B07070709077A
:102EC00007070D001022A2E00222A0E004229EE0EB
:102ED00008229CE002F5F832D2F8902002F030028D
:102EE000102A0DD005D9202A08D0302A04D1082272
:102EF0008DE00AB900228AE0102288E0022286E0F2
:102F0000042284E002F5F632D2F8902002F0C002EA
:102F1000402A0DD005D9802A08D0C02A04D1082221
:102F200075E00AB9002272E0102270E002226EE021
:102F300004226CE002F5F432D2F8902002F44072E0
:102F4000B2F5807F0FD007D9B2F5007F09D0B2F576
:102F5000407F04D108225AE00AB9002257E010222B
:102F600055E0022253E0042251E002F59232D2F8F9
:102F7000902002F44062B2F5806F0FD007D9B2F50D
:102F8000006F09D0B2F5406F04D108223FE00AB9C2
:102F900001223CE010223AE0022238E0042236E02E
:102FA00002F5E032D2F8902002F44052B2F5805F90
:102FB0000FD007D9B2F5005F09D0B2F5405F04D158
:102FC000082224E00AB9002221E010221FE0022298
:102FD0001DE004221BE002F5DE32D2F8902002F45C
:102FE0004042B2F5804F0FD007D9B2F5004F09D05B
:102FF000B2F5404F04D1082209E00AB9002206E0E8
:10300000102204E0022202E0042200E00122E16931
:10301000B1F5004F0BD0082A00F29B80DFE802F0E8
:10302000616D7999839999998F000022EFE7082AB9
:1030300054D8DFE802F0051722533F5353534A0098
:10304000FEF7E4FA6268530803EB4003B3FBF2F3C4
:103050009BB2002023F00F02C3F342031343226804
:10306000D36010BDFEF7E2FA6268530803EB400339
:10307000B3FBF2F39BB20020ECE762680C4B03EB6E
:103080005203B3FBF2F39BB20020E3E7F369FFEFD7
:10309000001001400044004000480040004C004047
:1030A000005000400014014000780040007C0040C7
:1030B0000048E801FEF786F96268530803EB400315
:1030C000B3FBF2F39BB20020C4E76268530803F538
:1030D0008033B3FBF2F39BB20020BBE70120002357
:1030E000B8E7FEF793FA636800EB5300B0FBF3F028
:1030F000236880B2D8600020B3E7FEF797FA6368D0
:1031000000EB5300B0FBF3F0236880B2D8600020DE
:10311000A7E76168104A02EB5102B2FBF1F292B2EA
:10312000DA6000209DE7FEF74DF9636800EB53007D
:10313000B0FBF3F0236880B2D860002091E76168AB
:103140004A0802F50042B2FBF1F292B2DA600020C6
:1031500087E7012085E700BF0024F400436A13F0ED
:10316000010F06D00268536823F40033816A0B43D1
:103170005360436A13F0020F06D00268536823F4C9
:103180008033C16A0B435360436A13F0040F06D0C7
:103190000268536823F48023016B0B435360436A36
:1031A00013F0080F06D00268536823F40043416B04
:1031B0000B435360436A13F0100F06D00268936804
:1031C00023F48053816B0B439360436A13F0200F09
:1031D00006D00268936823F40053C16B0B439360DD
:1031E000436A13F0400F0AD00268536823F4801337
:1031F000016C0B435360036CB3F5801F0BD0436A23
:1032000013F0800F06D00268536823F40023816C0A
:103210000B43536070470268536823F4C003416C4A
:103220000B435360EBE710B582B004460023C3663E
:10323000FDF786FA2268126812F0080F09D12023E0
:1032400084F8693084F86A30002084F8680002B09D
:1032500010BD6FF07E430093034600224FF400112F
:103260002046FFF7EBFB0028E9D00320EFE778B317
:1032700010B5044690F869300BB3242384F8693004
:103280002268136823F0010313602046FFF7B8FD9E
:10329000012813D0636ABBB92268536823F49043B2
:1032A00053602268936823F02A03936022681368AE
:1032B00043F0010313602046FFF7B5FF10BD80F80F
:1032C000683001F0C1FFD8E72046FFF747FFE3E78A
:1032D00001207047002301330C4A934211D8026940
:1032E000002AF8DA036943F0010303610023013384
:1032F000064A934207D8026912F0010FF7D1002065
:103300007047032070470320704700BF400D030043
:1033100084B010B5044603A880E80E00089B012B7A
:103320001ED1A36B23F48033A363E268164B1340D2
:10333000E360E36823F44013E3600F9B012B0AD0A2
:103340002046FFF7C7FF069B012B14D00020BDE8E5
:10335000104004B07047E36843F48013E360EFE784
:10336000E36843F04003E3602046FFF7B3FF4FF408
:103370008033A363E7E7A36843F00603A360A36871
:1033800043F02003A360E1E7BFFFBDFF836823F0A4
:10339000010383600020704708B5C36823F0C04371
:1033A000C360012909D069B9C36843F08043C36091
:1033B0003220FDF7CBF9002008BDC36843F000536D
:1033C000C360F5E70120F7E7890141F020010161C1
:1033D00000230133054A934205D8026912F0200FF9
:1033E000F7D1002070470320704700BF400D030055
:1033F0001023036100230133054A934205D8026973
:1034000012F0100FF7D1002070470320704700BF63
:10341000400D0300D0F800381943C0F80018002010
:103420007047000084B0F8B5044607A880E80E0095
:103430002546002306E003F1400204EB820200214E
:10344000516001330E2BF6D9A36B43F40013A36331
:10345000119F5FB9A36B23F40013A363236843F0A8
:1034600040032360236843F0800323600023C4F8F3
:10347000003E04F50066D4F80038C4F800380C9B10
:10348000012B08D0032B17D1099B83B900212046BB
:10349000FFF7C0FF14E0099B23B900212046FFF786
:1034A000B9FF0DE001212046FFF7B4FF08E001213C
:1034B0002046FFF7AFFF03E003212046FFF7AAFFF6
:1034C00010212046FFF780FF2046FFF791FF0023E1
:1034D00033617361F3610AE0C3B94FF00060C2F871
:1034E000000900220A614FF67F328A600133079992
:1034F000994210D905EB431202F51061D2F8000988
:103500000028E9DB0020C2F80009EAE74FF090400C
:10351000C2F80009E5E700230AE0CBB14FF0904C78
:10352000C2F800CB002202614FF67F328260013385
:10353000994212D905EB431202F53060D2F800CB64
:10354000BCF1000FE9DB4FF0000CC2F800CBE9E75B
:103550004FF0006CC2F800CBE4E7336923F48073CA
:1035600033610A9B012B1AD00022A2616FF08042C6
:1035700062611BB9A36943F01003A361A2690E4BFA
:103580001343A3610D9B1BB1A36943F00803A3611F
:10359000012F0BD00020BDE8F84004B07047074A67
:1035A0003263316B064A0A433263DDE7A269054B99
:1035B0001343A361EEE700BF00383C8000018000A8
:1035C000030001000400004008B5D0F8043843F0BF
:1035D0000203C0F804380320FDF7B8F8002008BD46
:1035E000842801D0033070470020704708B500F0F0
:1035F000BBF9002008BDF0B585B00F4644680568EA
:103600000669B0F90800FFF7EBFF03AB01930090E8
:103610003B46B2B22946204600F074F9012802D197
:10362000039805B0F0BD0020FBE700F108034360FC
:103630004FF0FF328260C360036100230360704774
:1036400000230361704743684B609A688A609A68F8
:10365000516099600861036801330360704730B4BA
:103660000D68B5F1FF3F02D000F1080202E00269E7
:1036700004E01A4653681C68AC42FAD953684B60A0
:1036800099608A605160086103680133036030BC4F
:10369000704703694268816891608268416851603F
:1036A0005A68824205D00022026118680138186009
:1036B000704782685A60F6E7074B9B6A1B6833B114
:1036C000054B9A6AD268D2685268DA627047024B38
:1036D0004FF0FF32DA6270477C01002010B50446DB
:1036E000006B00F097FD204600F094FD10BD2DE921
:1036F000F04780469946089D099F0A9C266B6FF00B
:103700004043134406EB830626F0070600230F2BE5
:1037100007D8C85CE21882F83400CA5C0AB10133E9
:10372000F5E7002384F84330062D00D90625E5622D
:1037300065644FF0000AC4F848A0201DFFF780FF21
:1037400004F11800FFF77CFF2461C5F10705A561AE
:103750006462C4F84CA084F850A04A464146304602
:1037600000F06AFB206007B13C60BDE8F087000014
:1037700070B5002407E004EB84029300104818445D
:10378000FFF753FF0134062CF5D90E4C04F1BC06AB
:103790003046FFF74AFF04F1D0052846FFF745FF02
:1037A00004F11400FFF741FF04F1E400FFF73DFFCF
:1037B0002046FFF73AFFA662C4F8F85070BD00BF7C
:1037C000AC0100207C01002038B5054600F062FB0A
:1037D000264BD3F8FC200132C3F8FC20D3F800318B
:1037E00073B1224BD3F804318BB9204BD3F800319D
:1037F000DA6AEB6A9A420AD81C4BC3F8005106E019
:103800001A4BC3F80051D3F8FC30012B2AD0174CC7
:10381000D4F808310133C4F80831EB6A01229A4028
:10382000D4F80C110A43C4F80C2104F1300003EB66
:1038300083039A00291D1044FFF705FF00F050FB99
:10384000D4F804316BB1D4F80031DA6AEB6A9A42E9
:1038500007D2074B4FF080521A60BFF34F8FBFF370
:103860006F8F38BDFFF784FFD1E700BF7C010020D8
:1038700004ED00E070B504460E46214BD3F810511C
:10388000D3F800010430FFF704FF60B91C4BD3F8F4
:103890000021D16A012202FA01F1D3F80C2122EAB7
:1038A0000102C3F80C21B4F1FF3F14BF0023012330
:1038B000002E08BF002393B92C44114BD3F80031DC
:1038C0005C60A54212D80E4DA86AD5F800110431EB
:1038D000FFF7C5FEEB6AA34210D9EC620EE0084880
:1038E000D0F800110431FFF7AEFE07E0044BD3F827
:1038F000F800D3F800110431FFF7B1FE70BD00BF2E
:103900007C0100202DE9F04385B007468846154626
:103910009946900000F0FEFBF8B10646542000F0F6
:10392000F9FB0446A8B10663D4B1002303930294C3
:103930000D9B01930C9B00934B462A46414638460B
:10394000FFF7D5FE2046FFF73FFF012005B0BDE899
:10395000F083304600F05EFCE6E74FF0FF30F5E71D
:103960004FF0FF30F2E7000000B583B0194B019330
:1039700000230093802218491848FFF7C3FF01284D
:1039800005D0B0F1FF3F19D003B05DF804FB4FF054
:10399000500372B683F31188BFF36F8FBFF34F8F5D
:1039A00062B60F4B4FF0FF32DA620122C3F80421F6
:1039B0000022C3F8102100F00BFBE5E74FF05003A5
:1039C00072B683F31188BFF36F8FBFF34F8F62B668
:1039D000FEE700BF98020020BC5C00080D3D000817
:1039E0007C010020034AD2F818310133C2F81831A3
:1039F000704700BF7C010020014BD3F810017047D5
:103A00007C0100202DE9F041414BD3F81831002B07
:103A10006ED13F4BD3F810510135C3F81051DDB9C9
:103A20009B6A1B6853B14FF0500372B683F3118841
:103A3000BFF36F8FBFF34F8F62B6FEE7344B9A6AC6
:103A4000D3F8F8109962C3F8F820D3F82021013296
:103A5000C3F82021FFF730FE2D4BDB6AAB423DD986
:103A600000242B4AD2F80031DB6A03EB8303990070
:103A70000A44136B012B42D9012440E00124244B5A
:103A80009B6A1B6863B3224B9B6ADB68DE687368C2
:103A90009D422AD306F104084046FFF7FAFDB36AB7
:103AA0001BB106F11800FFF7F4FDF36A01229A40FA
:103AB000174FD7F80C110A43C7F80C2107F1300053
:103AC00003EB83039A0041461044FFF7BCFDF26A02
:103AD000D7F80031DB6A9A42D0D2D0E70024CEE793
:103AE0000B4B4FF0FF32DA62BBE7094AD362B8E70B
:103AF000074AD2F824310133C2F824310024044BA0
:103B0000D3F8283103B101242046BDE8F08100BF7D
:103B10007C0100203A4BD3F8183153B94FF05003D1
:103B200072B683F31188BFF36F8FBFF34F8F62B606
:103B3000FEE770B500F0AEF9314BD3F81821013A29
:103B4000C3F81821D3F81831002B54D12C4BD3F8DB
:103B5000FC3023B9002400F0C3F9204670BD0024D6
:103B6000274B5B692BB3264D2B6ADC6804F11800E8
:103B7000FFF78FFD261D3046FFF78BFDE36A01221C
:103B80009A40D5F80C110A43C5F80C2105F1300014
:103B900003EB83039A0031461044FFF754FDE26AB9
:103BA000D5F80031DB6A9A42DAD30122C5F8282120
:103BB000D6E70CB1FFF780FD114BD3F8244164B177
:103BC000FFF720FF18B10E4B0122C3F82821013C5A
:103BD000F6D10B4B0022C3F82421094BD3F828312E
:103BE0005BB1084B4FF080521A60BFF34F8FBFF3A9
:103BF0006F8F0124AFE70024ADE70024ABE700BFDF
:103C00007C01002004ED00E038B560B10546A9B99B
:103C10004FF0500372B683F31188BFF36F8FBFF379
:103C20004F8F62B6FEE74FF0500372B683F31188F0
:103C3000BFF36F8FBFF34F8F62B6FEE71C4BD3F815
:103C4000183153B14FF0500372B683F31188BFF3AC
:103C50006F8FBFF34F8F62B6FEE70C46FFF7C2FED1
:103C6000134BD3F810012A681444824218D9A24297
:103C70000CD82C60FFF74EFF38B90E4B4FF0805236
:103C80001A60BFF34F8FBFF36F8F38BDA04201D3CF
:103C90002C60EFE72C600021201AFFF7EBFDE9E72D
:103CA000A24201D8A04201D22C60F4E72C60E1E7E7
:103CB0007C01002004ED00E038B5134BD3F814313B
:103CC0000BB3FFF78FFE104BD3F8E440FFF722FF52
:103CD000002CF2D000F0DEF80B4CD4F8F030DD68A8
:103CE000281DFFF7D6FCD4F8FC30013BC4F8FC30AB
:103CF000D4F81431013BC4F8143100F0F1F828462F
:103D0000FFF7ECFCD9E738BD7C01002008B5FFF7D0
:103D1000D3FF064B1B6B012BF9D9054B4FF080529B
:103D20001A60BFF34F8FBFF36F8FF0E77C01002065
:103D300004ED00E0234BD3F8183123B1214B0122CD
:103D4000C3F8282170471F4A0023C2F82831D2F84F
:103D50000C31B3FA83F3DBB2C3F11F0303EB83002F
:103D600081000A44126B52B94FF0500372B683F3CC
:103D70001188BFF36F8FBFF34F8F62B6FEE710B4A9
:103D8000104A9900CC18A0001044446B6468446346
:103D90003032194488000830024494420BD009495B
:103DA00003EB83039A000A44536BDB68C1F80031CC
:103DB0005DF8044B704761680248142202FB03025D
:103DC0005163ECE77C0100200D4B1B68B3F1FF3F12
:103DD0000AD04FF0500372B683F31188BFF36F8F90
:103DE000BFF34F8F62B6FEE74FF0500372B683F316
:103DF0001188BFF36F8FBFF34F8F62B6FEE700BF2E
:103E00000800002006480068006880F3088862B651
:103E100061B6BFF34F8FBFF36F8F00DF00BF0000AD
:103E200008ED00E0DFF80C00016841F4700101606A
:103E30007047000088ED00E04FF0807340F8043CCC
:103E400021F0010140F8081C054B40F80C3C40F8FB
:103E5000202C6FF0020340F8243C4438704700BF28
:103E6000C93D000800000000000000000000000044
:103E7000074B19680868B0E8F04F80F30988BFF372
:103E80006F8F4FF0000080F311887047AFF3008010
:103E90007C0200204FF0500372B683F31188BFF309
:103EA0006F8FBFF34F8F62B60B4A136801331360F5
:103EB000012B00D07047094B1B6813F0FF0FF9D09E
:103EC0004FF0500372B683F31188BFF36F8FBFF3C7
:103ED0004F8F62B6FEE700BF0800002004ED00E04F
:103EE0000A4B1B6853B94FF0500372B683F3118825
:103EF000BFF36F8FBFF34F8F62B6FEE7013B034AFC
:103F000013600BB983F31188704700BF08000020CD
:103F1000EFF30980BFF36F8F154B1A681EF0100F77
:103F200008BF20ED108A20E9F04F10604DF8043DE5
:103F30004FF0500072B680F31188BFF34F8FBFF37C
:103F40006F8F62B6FFF7F6FE4FF0000080F3118826
:103F500008BC19680868B0E8F04F1EF0100F08BFE1
:103F6000B0EC108A80F30988BFF36F8F704700BFF1
:103F70007C02002008B54FF0500372B683F311881D
:103F8000BFF36F8FBFF34F8F62B6FFF73BFD18B1E2
:103F9000034B4FF080521A60002383F3118808BD51
:103FA00004ED00E0064B1B68064AA2FB03239B09B5
:103FB000013B054A1360054B07221A60704700BF9A
:103FC0000C000020D34D621014E000E010E000E08F
:103FD00000B583B0224B1A78D2B20192FF221A7038
:103FE0001B78DBB28DF803309DF8033003F05003EB
:103FF0001C4A13700723536009E01A4A5368013BB7
:1040000053609DF803305B00DBB28DF803309DF800
:10401000033013F0800FF0D1124A53681B0203F4EF
:10402000E0635360019BDBB20D4A13700E4B1A68BC
:1040300042F470021A601A6842F070421A60FFF788
:10404000B1FF0A4B00221A60FFF7ECFE084A136822
:1040500043F040431360FFF7D5FEFFF7B5FE00BF06
:1040600000E400E0A802002020ED00E008000020AD
:1040700034EF00E0104A12F0070F1AD0D11D21F0E2
:104080000701C1F5705313440A460C490A60002029
:1040900048601344083B23F007038B6058601860A6
:1040A000981A50601360C86008614FF000434B617C
:1040B00070474FF47053E8E7C8020020B0020020B8
:1040C00010B4134B1A6882421BD359685C1884429F
:1040D00003D1406801445960184641684418A2421F
:1040E00013D10B4CA468A2420DD052681144416018
:1040F0001A6812680260984200D018605DF8044B9C
:1041000070471346DEE70460F5E70260F3E700BF9F
:10411000B002002070B50446FFF764FC3C4B9B687E
:10412000CBB13B4B5B691C4268D1BCB1083414F085
:10413000070F13D024F00704083404F007036BB111
:104140004FF0500372B683F31188BFF36F8FBFF344
:104150004F8F62B6FEE7FFF78DFFE2E7002C4FD0EE
:104160002B4B1B69A3424DD3294B1D6801E02B4605
:1041700015466A68A24202D22A68002AF7D1244A68
:104180009268AA4240D01E6808362A681A606B6896
:104190001B1B102B12D9281910F0070F0AD04FF053
:1041A000500372B683F31188BFF36F8FBFF34F8F45
:1041B00062B6FEE743606C60FFF782FF6968144AED
:1041C00013695B1A1361D268934201D2104AD3601B
:1041D0000F4B5B690B436B6000232B60FFF79AFC6E
:1041E00016F0070F12D04FF0500372B683F3118808
:1041F000BFF36F8FBFF34F8F62B6FEE70026EDE788
:104200000026EBE70026E9E70026E7E7304670BD29
:10421000B0020020002834D038B50446A0F10805CB
:1042200050F8042C174949690A420AD14FF050034B
:1042300072B683F31188BFF36F8FBFF34F8F62B6EF
:10424000FEE750F8080C50B14FF0500372B683F3FC
:104250001188BFF36F8FBFF34F8F62B6FEE722EA7C
:10426000010244F8042CFFF7BDFB54F8041C054A76
:1042700013690B4413612846FFF722FFFFF74AFC3E
:1042800038BD7047B00200202DE9F04F8FB00024F8
:1042900009940A940B940C940D94654B1A6B42F09C
:1042A00010021A631A6B02F010020192019A1A6B43
:1042B00042F004021A631A6B02F004020292029A9C
:1042C0001A6B42F020021A631A6B02F0200203926A
:1042D000039A1A6B42F080021A631A6B02F0800292
:1042E0000492049A1A6B42F001021A631A6B02F0EC
:1042F00001020592059A1A6B42F002021A631A6BC8
:1043000002F002020692069A1A6B42F008021A6341
:104310001A6B02F008020792079A1A6B42F04002E9
:104320001A631B6B03F040030893089B414E012264
:1043300008213046FCF77AFDDFF80C9101224FF49A
:1043400000614846FCF772FD22464FF48141484621
:10435000FCF76CFD384D224640212846FCF766FDEF
:10436000082309934FF0010ACDF828A00B940C9470
:1043700009A93046FCF76AFC4FF4005BCDF824B085
:104380002E4B0A930B9409A92D48FCF75FFC3223AE
:1043900009934FF00208CDF828800B9403270C975F
:1043A0000B260D9609A92648FCF750FC0623099315
:1043B000CDF828800B940C970D9609A92148FCF79D
:1043C00045FC4FF491430993CDF828A00B940C942D
:1043D00009A94846FCF73AFCCDF824B0CDF828806E
:1043E0000B940C970D9609A94846FCF72FFC402327
:1043F0000993CDF828A00B940C9409A92846FCF742
:1044000025FC802309930A940B9409A92846FCF7FC
:104410001DFC4FF420530993CDF828800B940C9782
:104420000D9609A92846FCF711FC0FB0BDE8F08FE6
:104430000038024000100240001802400000111035
:1044400000080240000002400004024000B583B0B2
:104450001A4B1A6B42F480021A631A6B02F4800240
:104460000092009A1A6B42F400121A631B6B03F459
:1044700000130193019B002205210D20FCF78CF90C
:104480000D20FCF7BBF9002205211020FCF784F970
:104490001020FCF7B3F9002205213820FCF77CF945
:1044A0003820FCF7ABF9002205213920FCF774F91C
:1044B0003920FCF7A3F903B05DF804FB0038024093
:1044C00008B50948094B03604FF46123436000239A
:1044D0008360C36003610C2242618361C361036234
:1044E0004362FEF7C4FE08BDEC52002000140140F8
:1044F00008B50948094B03604FF4E13343600023DA
:104500008360C36003610C2242618361C361036203
:104510004362FEF7ACFE08BDBC41002000480040ED
:1045200008B50948094B03604FF461234360002339
:104530008360C36003610C2242618361C3610362D3
:104540004362FEF794FE08BD305400200044004052
:1045500008B50948094B03604FF4E1234360002389
:104560008360C36003610C2242618361C3610362A3
:104570004362FEF77CFE08BD5C530020004C004007
:1045800008B50A484FF0A0430360062343600222A7
:10459000C2600023036182610122C261036243623F
:1045A000C2620363FCF748FC08BD00BFC0430020A3
:1045B00008B50C480C4B0360002343604FF4806245
:1045C00082604FF4E062C260036143618361036211
:1045D000436283620722C26203634363FDF766FCA2
:1045E00008BD00BFCC5300200030014008B50E4884
:1045F0000E4B03604FF482734360002383604FF4DB
:10460000E062C260036143614FF400728261C36182
:104610000362436283620722C26203630823436327
:10462000FDF744FC08BD00BF504100200050014090
:1046300030B5B9B0342200212BA8FBF7A5FF002428
:1046400026942794289429942A949022214602A8FB
:10465000FBF79AFFFCF786FC214B1A6C42F0805264
:104660001A641B6C03F080530093009B1D4B1A6867
:1046700042F440421A601B6803F440430193019BDB
:1046800001232B934FF4A0232C93022531954FF453
:104690008003329304233393D8233493359509232D
:1046A00036932BA8FCF7A4FCFCF764FC0F2326939D
:1046B000279528944FF4A05329934FF480532A93BD
:1046C000072126A8FCF7EAFE074B029314941594E1
:1046D00016941894219402A8FCF7D6FF39B030BD87
:1046E0000038024000700040800B200000B587B009
:1046F000FCF70EF8FFF79CFFFFF7C6FDFFF7A6FEDD
:10470000FFF7DEFEFFF73CFFFFF7F2FEFFF750FF7B
:10471000FFF76CFFFFF704FFFFF71AFF012280216C
:104720000848FCF783FB01AC074D0FCD0FC42B6885
:104730002360002101A8FEF75EFF044B1860FEF71E
:1047400055FFFEE700040240905C00082C42002068
:1047500010B5044602681C4B1B689A4205D02268BB
:104760001A4B1B689A4217D010BD194B01221A60D0
:104770005B68184A1178184AD154FE2B08DC0133C3
:10478000134A5360012213490F48FEF709F9E6E77F
:104790000F4B00225A60F5E70D4B01229A60DB684F
:1047A0000E4A11780E4AD154FE2B08DC0133084A18
:1047B000D360012209490548FEF7F2F8D4E7044B1B
:1047C0000022DA60F5E700BFEC5200205C530020C5
:1047D000C83E002014480020E05100205C55002015
:1047E000185000200B4B1B690B4AD05CFE2B08DCD9
:1047F0000133084A1361074B5A681B699A4204D077
:104800007047044B00221A61F5E7024B00221A6040
:10481000F6E700BFC83E0020E05100200B4B5B696B
:104820000B4AD05CFE2B08DC0133084A5361074B6E
:10483000DA685B699A4204D07047044B00225A61DF
:10484000F5E7024B00229A60F6E700BFC83E002061
:1048500018500020014B1868704700BFC83E002068
:10486000014B9868704700BFC83E00202DE9F04713
:10487000B8B00546684600F0FDFF9DF800909DF831
:10488000018000246127264694B9FFF7E9FFC0B9EB
:10489000FBF756FF204B9B69C01A0A28F5DD1E4A1C
:1048A000D3690133D361022B02DD13461B4A1A621E
:1048B000E0226946284601F0D0F9284638B0BDE824
:1048C000F087154B0022DA61FFF7A8FF8246CEB1D0
:1048D000D6B1B84209D0C2450FD1C24514D16846FD
:1048E00001F032F8012400260EE0C14514BF002378
:1048F00001234F45EFD13BB9EDE75146684601F042
:1049000033F8EAE7484501D05746BDE7684601F06D
:1049100025F80126F8E700BFC83E0020000040400F
:104920002DE9F047B8B00646684600F0A3FF9DF8B1
:1049300000A09DF8019000244FF06108274654BB69
:10494000FFF788FF0028FAD0FFF74CFF0546CFB1EC
:10495000D7B1404509D04D450FD14D4514D16846DA
:1049600000F0F2FF012400270EE0CA4514BF002327
:104970000123D045EFD13BB9EDE72946684600F069
:10498000F3FFEAE7504501D0A846D8E7684600F0B3
:10499000E5FF0127F8E7E0226946304601F05DF9BE
:1049A000304638B0BDE8F0872DE9F04F2DED108B83
:1049B000ADF27C5D00F000FF04227D497D48FDF7EB
:1049C00007FC3220FBF7C2FE002425465FE00022F0
:1049D0000DF254510A600DF5AB610A6076490DF293
:1049E0005C5001600DF5AC610A600DF264510A6023
:1049F0000DF5AD610A600DF23C510A606F490DF58D
:104A0000A86001600DF244510A600DF5A9610A60C9
:104A10000DF24C510A600DF5AA610A601E46FEF7C0
:104A2000EBFFCDF87804664BD3ED087AF5EEC07A4B
:104A3000F1EE10FA63DD012280216248FCF7F6F9FD
:104A40005F4B5B6A012B60D000224FF480415D48D0
:104A5000FCF7ECF95A4B5F6A002F40F0C18093F8E5
:104A60002830DBB2012B57D00135022D5ADC631CF4
:104A7000554A82FB0312DC17C4EB62144FF4FA723E
:104A800002FB14340A210DF58F60FFF7BDF84E4A82
:104A900082FB0432E317C3EB62134FF4FA7202FB9A
:104AA0001343002BBBD1002E91D100230DF25452A1
:104AB00013600DF5AB6213604FF080420DF25C5154
:104AC0000A600DF5AC6213600DF2645213600DF5CF
:104AD000AD6213600DF23C521360384A0DF5A861C7
:104AE0000A600DF2445213600DF5A96213600DF2D5
:104AF0004C5213600DF5AA62136001268FE7002265
:104B000080213048FCF792F99AE701224FF4804166
:104B10002C48FCF78BF99DE7294B002283F82820CD
:104B20003D46A4E74023E6934FF0020BCDF89CB33B
:104B30000025E8954FF0030ACDF8A4A34FF008092B
:104B4000CDF8A893DFF89480E6A94046FCF77EF8FC
:104B500001221E491E48FDF723FF4FF44063E693F0
:104B6000CDF89CB3E895CDF8A4A3CDF8A893E6A919
:104B70004046FCF76BF8012216491748FDF710FF75
:104B80004FF001090E4BC3F82490A8F580682A461F
:104B90004FF400614046FCF749F90A20FBF7D6FDC7
:104BA0004A464FF400614046FCF740F93D465EE757
:104BB000E0520020CC530020CDCC0C40CFF713BFE7
:104BC000C83E002000040240D34D6210144800206B
:104BD000EC5200205C5500205C530020000802408D
:104BE000FBF7AEFDB74FB86176A800F043FEB7EE15
:104BF000000A76A800F084FE9FEDB38AB0EE480A62
:104C000076A800F07DFEB0EE480A76A800F078FEA7
:104C1000B0EE480A76A800F073FEB0EE480A76A817
:104C200000F06EFE97ED080A76A800F069FE76A8FF
:104C300000F020FFAA9A91A9A44800F0CFFF3CA859
:104C4000FFF76EFEE0223CA9AEA801F006F8AEA880
:104C500000F07DFF00283FF40AAFAEA800F05BFE35
:104C6000F0EE40FA0DF2245383ED000AAEA800F0F6
:104C700052FEB0EE40FA0DF5A56383ED000AAEA832
:104C800000F049FEF0EE40EA0DF22C5383ED000AED
:104C9000AEA800F040FEB0EE40EA0DF20C5383EDFA
:104CA000000AAEA800F037FEF0EE40DA0DF5A26380
:104CB00083ED000AAEA800F02EFEB0EE40DA0DF251
:104CC000145383ED000AAEA800F025FEF0EE40CAB2
:104CD0000DF2FC4383ED000AAEA800F01CFEB0EE1E
:104CE00040CA0DF59F6383ED000AAEA800F013FEE5
:104CF000F0EE40BA0DF5A66383ED000AAEA800F011
:104D00000AFEB0EE40BA0DF2345383ED000AAEA8AD
:104D100000F001FEF0EE40AA0DF5A76383ED000A56
:104D2000AEA800F0F8FDB0EE40AA0DF5A36383ED48
:104D3000000AAEA800F0EFFDF0EE409A0DF21C5311
:104D400083ED000AAEA800F0E6FDB0EE409A0DF546
:104D5000A46383ED000AAEA800F0DDFDF0EE408A0A
:104D60000DF2045383ED000AAEA800F0D4FDB0EEBE
:104D7000408A0DF5A06383ED000AD7ED087AF5EEC1
:104D8000407AF1EE10FA00F0AB8000278DF8D47174
:104D90008DF8D5718DF8D6718DF8D7710120FBF79C
:104DA000D5FC3A4608214A48FCF740F84FF47A739C
:104DB000042275A94748FDF7D6F84648FDF721FCBF
:104DC0000128FAD1012208214148FCF72FF83D4B78
:104DD000D3ED087AF5EE407AF1EE10FA00F0F380A8
:104DE000F0220DF59161684600F037FF0DF27C432B
:104DF0000ECB3CA800F0F8FCDFF8E0C03CAF0FCFD2
:104E0000ACE80F0097E807008CE807002D4BD3EDC6
:104E1000087AF5EE407AF1EE10FA1CD12E4BD3ED64
:104E2000056AACF1100393ED057AF1EE047A77EEA2
:104E3000277AF4EEE76AF1EE10FA08DCF1EE047A74
:104E400037EE677AF4EEC76AF1EE10FA03D51D4B20
:104E50004FF080421A621B4BD3ED087AF5EE407A90
:104E6000F1EE10FA40F0E480E6A800F003FD9FEDBB
:104E7000160AE6A800F044FD174F97ED050AE6A8CC
:104E800000F03EFD97ED020AE6A800F039FD97ED2F
:104E9000040AE6A800F034FD97ED010AE6A800F048
:104EA0002FFD084B93ED080AE6A800F029FDE6A8BF
:104EB00000F0E0FDDDF868240DF20441034800F045
:104EC0008DFED4E5C83E002000000000EC5200201A
:104ED0000010024050410020C0470020A85400208C
:104EE000E6A800F0C7FCB0EE6F0AE6A800F008FDE7
:104EF000B0EE4F0AE6A800F003FDB0EE6E0AE6A899
:104F000000F0FEFCB0EE4E0AE6A800F0F9FCB0EEB0
:104F10006D0AE6A800F0F4FCB0EE4D0AE6A800F039
:104F2000EFFCB0EE6C0AE6A800F0EAFCB0EE4C0A2A
:104F3000E6A800F0E5FCB0EE6B0AE6A800F0E0FCA5
:104F4000B0EE4B0AE6A800F0DBFCB0EE6A0AE6A879
:104F500000F0D6FCB0EE4A0AE6A800F0D1FCB0EEB4
:104F6000690AE6A800F0CCFCB0EE490AE6A800F019
:104F7000C7FCB0EE680AE6A800F0C2FCB0EE480A32
:104F8000E6A800F0BDFC0DF2545393ED000AE6A82C
:104F900000F0B6FC0DF5AB6393ED000AE6A800F057
:104FA000AFFC0DF25C5393ED000AE6A800F0A8FCFC
:104FB000E6A800F05FFDDDF868240DF204413348F7
:104FC00000F00CFEE1E63CA8FFF750FCE0223CA913
:104FD000E6A800F042FE2E4BDB69002B7FF400AF09
:104FE0002B4BD3ED087AF5EE407AF1EE10FA7FF410
:104FF000F7AEE6A800F0ABFD20B9254B4FF07E528E
:105000001A62EDE6E6A800F086FC224F87ED050A5D
:10501000E6A800F080FC87ED020AE6A800F07BFC21
:1050200087ED040AE6A800F076FC87ED010AD7E6D2
:10503000E6A800F01FFC9FED180AE6A800F060FC4F
:10504000164F97ED050AE6A800F05AFC97ED020A04
:10505000E6A800F055FC97ED040AE6A800F050FC25
:1050600097ED010AE6A800F04BFC094B93ED080A06
:10507000E6A800F045FCE6A800F0FCFCDDF868249A
:105080000DF20441064800F0A9FDF0E45C53002055
:10509000C83E0020C047002000000000A8540020A7
:1050A000EC52002008B50268074B1B689A4200D0FA
:1050B00008BD064B012283F8282004220449024837
:1050C000FDF786F8F4E700BFCC530020C83E00206F
:1050D000E052002008B50268034B9A4200D008BD98
:1050E000FBF722FBFBE700BF000001407047000018
:1050F00000B583B00D4B1A6C42F080521A641A6CE2
:1051000002F080520092009A5A6C42F480425A6433
:105110005B6C03F480430193019B00220F216FF02D
:105120000100FBF739FB03B05DF804FB00380240D7
:1051300010B58AB00023059306930793089309934B
:1051400003683A4A934204D0394A934244D00AB0A1
:1051500010BD0446374B5A6C42F480525A645A6C64
:1051600002F480520192019A1A6B42F001021A6312
:105170001B6B03F001030293029BB02305930223F0
:105180000693032308930523099305A92A48FBF7EF
:105190005DFD2A482A4B03604FF0C0634360002343
:1051A0008360C3604FF48062026143618361C361C5
:1051B00003624362FBF7A8FB58B9204BA3659C63CD
:1051C000002205212320FBF7E7FA2320FBF716FB3B
:1051D000BDE7FFF78BFFF0E7164B5A6C42F48012E5
:1051E0005A645A6C02F480120392039A1A6B42F0CA
:1051F00020021A631B6B03F020030493049B4FF4FB
:10520000207305930223069303230893052409942E
:1052100005A90C48FBF71AFD002221465520FBF793
:10522000BBFA5520FBF7EAFA91E700BF00300140D6
:10523000005001400038024000000240FC540020B1
:105240001064024000140240F0B58FB00446002301
:1052500009930A930B930C930D930368884A934226
:105260000CD0884A93424AD0874A934200F09480F7
:10527000864A934200F0B1800FB0F0BD844B1A6CA7
:1052800042F400221A641A6C02F400220092009A7E
:105290001A6B42F004021A631B6B03F004030193C0
:1052A000019B4FF44063099303230C9308230D9350
:1052B00009A97848FBF7CAFC7748784B03604FF0A0
:1052C0000063436000238360C3604FF48062026127
:1052D00043618361C36103624362FBF715FB58B905
:1052E0006D4B63669C63002205213420FBF754FA62
:1052F0003420FBF783FABFE7FFF7F8FEF0E7644BD3
:105300001A6C42F400321A641A6C02F400320292EF
:10531000029A1A6B42F001021A631A6B02F0010240
:105320000392039A1A6B42F008021A631B6B03F094
:1053300008030493049B0823099302250A95032775
:105340000C9707260D9609A95548FBF77FFC2023EB
:1053500009930A9500250B950C970D9609A95148BC
:10536000FBF774FC5048514B03604FF000634360FF
:105370008560C5604FF48063036145618561C561E7
:1053800005624562FBF7C0FA18B9474B63669C6338
:1053900072E7FFF7ABFEF8E73D4B1A6C42F4802250
:1053A0001A641A6C02F480220592059A1A6B42F074
:1053B00008021A631B6B03F008030693069B4FF465
:1053C0004073099302230A9303230C9307230D933D
:1053D00009A93448FBF73AFC4EE72D4B5A6C42F0D2
:1053E00020025A645A6C02F020020792079A1A6B44
:1053F00042F004021A631B6B03F004030893089B3A
:105400004023099303250C9508270D97214E09A9E0
:105410003046FBF71BFC8023099302230A930B936E
:105420000C950D9709A93046FBF710FC2048214B3D
:1054300003604FF02063436000238360C3604FF438
:105440008062026143618361C3614FF44032026252
:10545000042242628562C3620363FBF755FA58B9BE
:10546000134B63669C63002205214720FBF794F9E8
:105470004720FBF7C3F9FFE6FFF738FEF0E700BF70
:10548000004C00400044004000480040001401402F
:1054900000380240000802400C40002040600240FA
:1054A00000000240000C0240704000208860024072
:1054B000D04000202864024030B589B00023039317
:1054C00004930593069307930368B3F1A04F01D0AB
:1054D00009B030BD1A4C236B43F001032363236BE7
:1054E00003F001030093009B4FF4E853039302235E
:1054F0000493032306930A230793124D03A9284616
:10550000FBF7A4FB4FF4007303930023049305936C
:1055100003A92846FBF79AFB636B43F080036363A0
:10552000636B03F080030193019B636C43F480433E
:105530006364636C03F480430293029BC8E700BF7B
:10554000003802400000024000B589B00022014648
:105550001920FBF721F91920FBF750F9154B5A6C6C
:1055600042F001025A645B6C03F001030193019B5A
:1055700002A903A8FCF76AF8FCF758F843000E48A4
:10558000A0FB03239B0C013B0C480D4A026040F238
:10559000E732C2604360002303618360FDF798F93E
:1055A00018B1012009B05DF804FB0448FDF72DF89F
:1055B000F8E700BF0038024083DE1B43805500201F
:1055C000000001407047FEE7FEE7FEE7FEE7704798
:1055D00008B50248FBF74CFA08BD00BF0C4000209C
:1055E00008B50248FBF744FA08BD00BF7040002030
:1055F00008B50248FDF719F808BD00BF8055002026
:1056000008B50248FCF770FF08BD00BFCC5300206E
:1056100008B50248FDF74EFB08BD00BF5C530020F3
:1056200008B50248FBF724FA08BD00BFFC5400206F
:1056300008B50248FBF71CFA08BD00BFD0400020A7
:1056400008B50248FDF736FB08BD00BFEC5200204C
:1056500008B50248FCF748FF08BD00BF50410020D4
:1056600010B40F4AD2F8883043F47003C2F888307F
:105670000C4B196841F001011960002098601C680A
:1056800009492140196009495960196821F48021AC
:105690001960D8604FF0006393605DF8044B704769
:1056A00000ED00E000380240FFFFF6FE103000245D
:1056B00084B070B596B006461BA880E80E0010AC0A
:1056C0003FAD0FCD0FC495E8030084E803000AAC9A
:1056D00045AD0FCD0FC495E8030084E8030006AC88
:1056E0003AAB0FCB84E80F00304B314A1A605A6056
:1056F0004B9A9A604C9ADA604D9A1A61519A5A61A3
:10570000529A9A61539ADA6100221A625A624E9A48
:105710009A624F9ADA62509A1A63549A5A63559A67
:105720009A63569ADA63234C079A2260069A62605B
:10573000109AA260119AE260129A22610A9A62613A
:105740000B9AA2610C9AE261099A2262089A62623B
:10575000139AA262149AE262159A22630D9A626306
:105760000E9AA2630F9AE263012210216846FAF7AB
:1057700013FF23460122102102A8FAF70DFF04AD02
:1057800004F14003012210212846FAF705FF2A46BA
:10579000694602A8FAF778FF95E8030086E8030057
:1057A000304616B0BDE8704004B0704710000020CD
:1057B00046B6133FF83E002038B5094D094C05F1B7
:1057C00040030122042104F18000FAF7E5FE05F10F
:1057D00050031022042104F18800FAF7DDFE38BDE1
:1057E00010000020F83E002084B0F0B5C5B004469B
:1057F0004BAD85E80E001E4E06F1900301220421F8
:105800003EA8FAF7C9FE06F1D0030122042140A800
:10581000FAF7C2FE3CAFF0224EA9684600F01DFA2E
:1058200095E80E003846FFF743FF42AB97E80300C8
:1058300083E8030040AA194606F18800FAF7B0FE93
:105840003EAA40A906F18000FAF71EFF3F9B1A68A6
:1058500062615A68A2609A682261DB686360002313
:105860002370204645B0BDE8F04004B0704700BF4B
:10587000F83E00207E22027042707D22827000225B
:105880008266C0F8D020A0F8D420C0F8D82080F8D4
:10589000DC2080F8DD207047F0B400263346324625
:1058A00018E0845D14440F4D85FB04721719E2174C
:1058B000C2EBE712C2EB0222A21A92B2D41885FB05
:1058C00004352544E317C3EBE513C3EB0323E31AC5
:1058D0009BB201368E42E4DB42EA032290B2F0BC76
:1058E000704700BF8180808038B50446154603307C
:1058F000A36E184400F0B1F9A26E2A44A26638BD26
:1059000000B583B002A921ED010A0422FFF7ECFFE4
:1059100003B05DF804FBC21CD0F8D830D258043371
:10592000C0F8D83000EE102A704738B50446154646
:105930006C30D4F8D030184400F08FF9D4F8D0206F
:105940002A44C4F8D02038BD10B50446012281187D
:10595000FFF7EBFF002384F8DD3010BD08B501220E
:105960000146FFF7E2FF08BD00B583B002AB03F8C4
:10597000011D01221946FFF7D8FF03B05DF804FBB3
:1059800008B50146826E0331FFF7CFFF08BD10B5A1
:1059900082B00446816E0330FFF77EFFA4F8D40086
:1059A00002A921F8040D02222046FFF79DFF02B054
:1059B00010BD38B50546B0F8D440816E0330FFF70E
:1059C0006BFF844214BF0020012085F8DC0038BD45
:1059D00003788B4209D043788B4208D083788B427E
:1059E00001D000207047012070470120704701203E
:1059F00070472DE9F041A2B00746884601A800F0A3
:105A0000BBF8FE1C002404E0294601A800F0BAF807
:105A10000134444510DA355D29463846FFF7D8FF92
:105A20000028F1D0B97801A800F0ACF885F0200189
:105A300001A800F0A7F8EBE79DF885509DF88430A9
:105A4000ED1A05F07F05002403E09DF80030335582
:105A50000134694601A800F0AEF80028F5D12846C7
:105A600022B0BDE8F08110B50446816EFFF7C1FF9A
:105A7000A06610BD10B50446FFF770FF2046FFF783
:105A800086FF2046FFF7EFFF2046FFF779FF20460D
:105A9000FFF75AFF002384F8DC3010BDF0B5A3B047
:105AA00005460F4601A800F067F8EE1C002409E047
:105AB0000134315D81F020018DF8001001A800F063
:105AC00061F801347B1EA34209DD315DAB78994258
:105AD000EED08DF8001001A800F054F8F1E7F319AA
