:020000040800F2
:1000000000000820E1450008A9440008AB440008AE
:10001000AD440008AF440008B144000800000000EF
:10002000000000000000000000000000313900085E
:10003000B344000800000000D1390008353A000838
:1000400031460008314600083146000831460008B4
:1000500031460008314600083146000831460008A4
:100060003146000831460008314600083146000894
:100070003146000831460008314600083146000884
:100080003146000831460008314600083146000874
:100090003146000831460008314600083146000864
:1000A00031460008B54400083146000831460008D2
:1000B0003146000831460008314600083146000844
:1000C0003146000831460008314600083146000834
:1000D0003146000831460008314600083146000824
:1000E0003146000831460008314600083146000814
:1000F0003146000831460008314600083146000804
:1001000031460008314600083146000831460008F3
:1001100031460008314600083146000831460008E3
:1001200031460008C5440008314600083146000841
:1001300031460008314600083146000831460008C3
:1001400031460008314600083146000831460008B3
:10015000314600083146000831460008D544000801
:100160003146000831460008314600083146000893
:100170003146000831460008314600080000000002
:100180003146000831460008314600083146000873
:100190003146000831460008314600083146000863
:1001A0003146000831460008314600083146000853
:1001B0003146000831460008314600083146000843
:1001C00031460008314600080000000031460008B2
:1001D0003146000831460008314600083146000823
:1001E0003146000831460008314600083146000813
:0801F000314600083146000809
:1002000010B5054C237833B9044B13B10448AFF350
:1002100000800123237010BDA00100200000000019
:10022000284F000808B5034B1BB103490348AFF33F
:10023000008008BD00000000A4010020284F000835
:1002400053B94AB9002908BF00281CBF4FF0FF313D
:100250004FF0FF3000F072B9ADF1080C6DE904CE3B
:1002600000F006F8DDF804E0DDE9022304B0704791
:100270002DE9F047089E04468846002B4BD18A4260
:10028000154667D9B2FA82F24AB1C2F1200701FAE3
:1002900002F320FA07F7954047EA030894404FEA33
:1002A000154E230CB8FBFEF71FFA85FC0EFB1788D2
:1002B00043EA084307FB0CF1994209D9EB1807F10F
:1002C000FF3080F01B81994240F21881023F2B449D
:1002D0005B1AA4B2B3FBFEF00EFB103344EA0344F6
:1002E00000FB0CFCA44509D92C1900F1FF3380F068
:1002F0000781A44540F2048102382C4440EA0740BB
:10030000A4EB0C0400271EB1D4400023C6E900432F
:100310003946BDE8F0878B4209D9002E00F0EB800A
:100320000027C6E9000138463946BDE8F087B3FA30
:1003300083F7002F47D18B4202D3824200F2FA802A
:10034000841A61EB030301209846002EE0D0C6E931
:100350000048DDE702B9FFDEB2FA82F2002A40F07F
:100360008F80491B4FEA154E1FFA85F80127B1FB14
:10037000FEFC230C0EFB1C1143EA014308FB0CF1AD
:10038000994207D9EB180CF1FF3002D2994200F2E2
:10039000CD808446591AA3B2B1FBFEF00EFB1014B7
:1003A00043EA044408FB00F8A04507D92C1900F1E2
:1003B000FF3302D2A04500F2B6801846A4EB080431
:1003C00040EA0C409FE7C7F1200CBB4022FA0CFE2C
:1003D0004EEA030E01FA07F420FA0CF521FA0CF3A9
:1003E0004FEA1E482543B3FBF8F92C0C08FB1933E0
:1003F0001FFA8EFA44EA034309FB0AF49C4202FA0C
:1004000007F200FA07F10BD91EEB030309F1FF30E5
:1004100080F087809C4240F28480A9F102097344F5
:100420001B1BADB2B3FBF8F008FB103345EA0344E5
:1004300000FB0AFAA24508D91EEB040400F1FF33C1
:100440006BD2A24569D90238744440EA0940A0FB46
:100450000289A4EB0A044C45C2464B4654D351D002
:10046000002E69D0B1EB0A0564EB030404FA0CFC1E
:10047000FD40FC404CEA0505C6E90054002747E76B
:10048000C2F1200320FA03F7954001FA02F021FAA5
:1004900003F34FEA154E3843010CB3FBFEF71FFA86
:1004A00085F80EFB173341EA034107FB08F38B4243
:1004B00004FA02F407D9691807F1FF3C2FD28B42E6
:1004C0002DD9023F2944CB1A81B2B3FBFEF00EFBBB
:1004D000103341EA034100FB08F38B4207D9691846
:1004E00000F1FF3C17D28B4215D902382944C91AB2
:1004F00040EA07473BE73746304609E70746E7E665
:100500001846FBE64145ABD2B8EB020A69EB0E0296
:1005100001381346A4E76046E9E7184695E76746C1
:10052000D1E781467CE702382C4447E7ACF1020C66
:100530002B442FE7384608E73746E9E6704700BF07
:10054000034613F8012B002AFBD1181A0138704713
:1005500070B50D4E0D4CA41BA4100025A54209D169
:100560000B4E0C4C04F0E0FCA41BA4100025A5428B
:1005700005D170BD56F8253098470135EEE756F89D
:10058000253098470135F2E7785000087850000888
:10059000785000087C50000802440346934200D182
:1005A000704703F8011BF9E70A4B10B504461868B9
:1005B00018B183690BB904F083F8132C07D80648E7
:1005C00050F83430013302D000EBC40010BD0020DD
:1005D000FCE700BF30010020A0400020F8B5431C1C
:1005E000054609D104F026F81324064600272046C4
:1005F0003946ABBE044634602846F8BDF8B505461A
:1006000004F018F813240646002720463946ABBEEE
:10061000044634602846F8BD30B585B0CDE9010107
:100620000392062401AD20462946ABBE044620466F
:10063000FFF7D4FF05B030BD70B50E461546FFF785
:10064000B3FF044630B903F0F5FF092303604FF010
:10065000FF3070BD2A4631460068FFF7DDFF431CBE
:100660001FBF6368281A1B186360F2E7F7B50C46D2
:100670001646FFF799FF054640B903F0DBFF092353
:1006800003604FF0FF34204603B0F0BD022E03D9C3
:1006900003F0D0FF1623F3E7012E12D14368E418CC
:1006A000F6D42B680A26CDE900346F463046394629
:1006B000ABBE06463046FFF791FF0028E1DB6C60D9
:1006C000E1E7022EEDD102AF036847F8083D0C26A2
:1006D00030463946ABBE06463046FFF77FFF431C27
:1006E000CFD00444DDE7FFF7C1BF30B585B0CDE919
:1006F00001010392052401AD20462946ABBE044604
:100700002046FFF76BFF05B030BD70B50E461546AD
:10071000FFF74AFF044630B903F08CFF092303605A
:100720004FF0FF3070BD2A4631460068FFF7DDFF0D
:10073000021EF5DB6368A81A0344AA426360F1D184
:100740000020BDE87040FFF759BF37B502AD022465
:1007500045F8040D20462946ABBE04462046FFF767
:100760003DFF03B030BD000038B50546FFF71CFF64
:10077000044630B903F05EFF092303604FF0FF30F9
:1007800038BD013D012D09D8094B9A681B699A4271
:1007900004D14FF0FF3303600020F1E72068FFF73A
:1007A000D4FF0028ECD14FF0FF332360E8E700BF0F
:1007B000A04000200D4B196810B5024609B90C493C
:1007C00019601868694602448A4206D809490A4CE9
:1007D0000968A14208D08A4206D903F02BFF0C23F6
:1007E00003604FF0FF3010BD1A60FCE7904000201E
:1007F0000050002094010020ADDEFECA70B50C460A
:10080000FFF7D2FE064630B903F014FF0923036058
:100810004FF0FF3070BD636843F4005363604FF4E2
:10082000806363640C2528463146ABBE05462846E6
:10083000FFF7D4FE431C1CBF20610020EAE70B46F3
:1008400010B50021044658221846FFF7A5FE0146C0
:100850002046BDE81040FFF7D1BF38B50D4604462D
:10086000582200212846FFF797FE2046002100F07D
:1008700011F8431C04460BD06B6843F401436B60D2
:100880002946FFF7BBFF05462046FFF76DFF2C46C4
:10089000204638BD2DE9F0472B4B96B082460E46D8
:1008A0000025984653F83540611C4FEAC50736D0FD
:1008B0000135142DF6D103F0BDFE182303604FF06F
:1008C000FF343CE0C6F3004440F20163B20748BF86
:1008D00044F002041E4218BF44F00404330748BF2A
:1008E00024F00404504648BF44F00804CDF800A0AA
:1008F000FFF726FECDE90140012420464946ABBE64
:100900000446002C06DB4744002348F835407B6052
:100910002C4614E02046FFF771FE04460FE006F473
:100920002063B3F5206FE946CCD149465046FFF726
:1009300094FF0130C6D003F07DFE112303602046F2
:1009400016B0BDE8F08700BFA04000202DE9F743B6
:1009500007468846294800211546FFF79BFF2A468F
:10096000044600213846FFF717FE631C15D02046C9
:10097000FFF71AFE0C26814630464946ABBE0646B6
:100980003046FFF72BFE032802DD0338A84208DCBF
:100990002046FFF7E9FE4FF0FF34204603B0BDE8E4
:1009A000F08304220DEB02012046FFF745FE0328E9
:1009B000EEDD9DF80430532BEAD19DF80530482B2D
:1009C000E6D19DF80630462BE2D19DF80730422B48
:1009D000DED1012241462046FFF748FE0028D7DB42
:1009E0002A4639462046FFF727FE05462046FFF7F0
:1009F000BBFE2846FFF7F2FD0446CEE7784F00081D
:100A000037B50A4D0A4C0021012201A82960226055
:100A1000FFF79CFF002807DD9DF8043003F001027A
:100A200003F002032A60236003B030BD9801002068
:100A30009C01002010B5044C2268002A01DAFFF75F
:100A4000DFFF206810BD00BF9C0100202DE9F04FA2
:100A500085B0DFF8B090CDF8049003230024039311
:100A60000DF104080294012528464146ABBE054617
:100A7000204E214A356023464FF0FF31144642F89C
:100A800033100133142BFAD1FFF7D4FF1B4DD0B133
:100A90004FF0030A0423CDF804900127CDF80CA0F1
:100AA000029338464146ABBE8346154BCDF80490C1
:100AB000C3F800B00823CDF80CA002933846414695
:100AC000ABBE07462F602B68013302BF0C4B1B687F
:100AD0002B603368236000266660FFF7ABFF30B100
:100AE000074B1B68C4E902362B68C4E9043605B01D
:100AF000BDE8F08F98400020A040002094400020E6
:100B00009C4000208E4F000870B5FFF74DFD092571
:100B1000044620B903F08EFD0560204670BD2846CE
:100B20002146ABBE0446012CF7D003F083FD002420
:100B30000646132528462146ABBE05463560ECE740
:100B4000018042804360704708B5032000F02EF812
:100B5000002003F06BFC03F077FB002008BD0000D1
:100B6000034A1168034B1B780B441360704700BFA6
:100B70004841002000000020014B1868704700BF6A
:100B80004841002038B50446FFF7F6FF0546B4F1AA
:100B9000FF3F02D0044B1B781C44FFF7EDFF401BC6
:100BA000A042FAD338BD00BF000000200649CB6840
:100BB00023F4E0631B041B0C000200F4E060034319
:100BC000024A1A43CA60704700ED00E00000FA05CF
:100BD00030B4154BDB68C3F30223C3F10704042CC4
:100BE00028BF04241D1D062D14D9033B4FF0FF35EB
:100BF00005FA04F421EA0401994005FA03F322EA14
:100C000003031943002807DB0901C9B2074B195434
:100C100030BC70470023E9E700F00F000901C9B2BA
:100C2000034B1954F4E700BF00ED00E000E400E0DE
:100C300014ED00E000F01F02400901239340024A36
:100C400042F82030704700BF00E100E030B4056892
:100C50002C6824F480242C60046863608368402B33
:100C600005D0036899600368DA6030BC7047036898
:100C70009A600368D960F8E70268D3B2103B09496B
:100C8000A1FB03131B090849C95CC165032B04D8E8
:100C9000064B13408365806D7047044B134004334B
:100CA0008365F8E7ABAAAAAA404F000800FCFFFF43
:100CB000836A826992B9012B0AD01BB1022B01D041
:100CC00000207047C36A13F0807F2CD1002070474A
:100CD000C36AB3F1C07F28D000207047B2F5005F2F
:100CE00005D0022B29D9032B15D000207047032BE8
:100CF00003D8DFE803F01C041C0A00207047C36A15
:100D000013F0807F15D100207047C36AB3F1C07F14
:100D100011D000207047C36A13F0807F01D00120FA
:100D20007047002070470120704701207047012064
:100D30007047012070470120704701207047000074
:100D400070B50446FFF718FF002C5BD00546002362
:100D500084F83430022384F835302268136823F095
:100D60000103136023681A6812F0010F0AD0FFF71D
:100D700003FF401B0528F5D920236365032084F871
:100D8000350070BD1A68204810406168A2680A43A7
:100D9000E1680A4321690A4361690A43A1690A4378
:100DA000E1690A43216A0A430243616A04291ED0A9
:100DB0001A602668756925F00705636A1D43042BD0
:100DC00007D1A36A1D43E36A1BB12046FFF770FFFA
:100DD00090B975612046FFF74FFFE26D3F239340C6
:100DE000836000206065012384F83530C9E7E16A3B
:100DF000206B01430A43DBE740236365012084F84D
:100E00003500BEE70120BCE73F8010E038B5856DB6
:100E100090F83440012C31D0012480F8344090F80F
:100E20003540E4B2012C04D0002380F83430022095
:100E300038BD0446022084F8350000206065204655
:100E4000FFF704FFE26D3F239340AB602268136815
:100E500043F0160313602268536943F08003536123
:100E6000236C23B12268136843F0080313602268DF
:100E7000136843F0010313600020D9E70220D7E78D
:100E800090F83530DBB2022B03D08023436501207C
:100E90007047052380F835300268136823F001039A
:100EA0001360002070470000F0B583B004460023B3
:100EB0000193724B1D68724BA3FB0535AD0A876D1C
:100EC0003E68C26D08239340334210D003681A680D
:100ED00012F0040F0BD01A6822F004021A60C26DDF
:100EE00008239340BB60436D43F001034365E26D0B
:100EF00001239340334209D02268526912F0800FD7
:100F000004D0BB60636D43F002036365E26D0423AC
:100F10009340334209D02268126812F0020F04D0C5
:100F2000BB60636D43F004036365E26D102393407F
:100F3000334224D02268126812F0080F1FD0BB6021
:100F400023681A6812F4802F0DD01B6813F4002F49
:100F500004D1236C9BB12046984710E0A36C73B179
:100F6000204698470BE01A6812F4807F03D11A6874
:100F700022F008021A60236C0BB120469847E26DFC
:100F800020239340334255D02268126812F0100F8C
:100F900050D0BB6094F83530DBB2052B0ED02368FF
:100FA0001A6812F4802F33D01B6813F4002F2AD153
:100FB000636C002B3ED0204698473BE022681368C4
:100FC00023F0160313602268536923F080035361F2
:100FD000236CA3B12268136823F008031360E26D49
:100FE0003F239340BB60002384F83430012384F80E
:100FF0003530236D002B3FD0204698473CE0A36C52
:10100000002BE7D1EBE7E36BA3B12046984711E053
:101010001A6812F4807F09D11A6822F010021A604F
:10102000002384F83430012384F83530E36B0BB1AE
:1010300020469847636DFBB1636D13F0010F17D025
:10104000052384F835302268136823F00103136008
:10105000019B01330193AB4204D823681B6813F052
:10106000010FF5D1002384F83430012384F83530A2
:10107000E36C0BB12046984703B0F0BD0C00002094
:10108000B5814E1B00230F2B00F2E280F0B482B03A
:1010900039E0092200E00022B2403A4302346D4EAA
:1010A00046F824206C4A1468EA4302EA04064F68B2
:1010B00017F4803F01D045EA0406674C2660646857
:1010C00002EA04064F6817F4003F01D045EA04061F
:1010D000614C6660A46802EA04064F6817F4801F3A
:1010E00001D045EA04065C4CA660E46822404E68E4
:1010F00016F4001F01D045EA0402574CE2600133A8
:101100000F2B00F2A28001229A400C6804EA02052B
:10111000AA42F4D14C68122C18BF022C10D1DE0860
:10112000083650F826C003F00704A7000F24BC407F
:101130002CEA040C0C69BC4044EA0C0440F826403C
:1011400004685F000326BE40F64306EA040C4C68C0
:1011500004F00304BC4044EA0C0404604C6804F14D
:10116000FF3C112C18BFBCF1010F01D9122C11D179
:10117000846806EA040CCC68BC4044EA0C04846031
:10118000446824EA020C4C68C4F300129A4042EA14
:101190000C024260C26816408A68BA403243C2609C
:1011A0004A6812F0805FAAD02C4A546C44F4804400
:1011B0005464526C02F480420192019A9C08A61C6D
:1011C000244A52F8267003F0030296000F22B24020
:1011D00027EA0207224A90423FF45DAF02F580629F
:1011E000904222D002F58062904220D002F58062C7
:1011F00090421ED002F5806290421CD002F58062BF
:1012000090421AD002F58062904218D002F58062B6
:10121000904216D002F58062904214D002F58062AE
:1012200090423FF436AF0A2236E7012234E7022229
:1012300032E7032230E704222EE705222CE70622BC
:101240002AE7072228E7082226E702B0F0BC704709
:10125000704700BF00380140003C014000380240A8
:101260000000024012B90904816170478161704732
:10127000436959404161704700287DD0F0B58BB07B
:10128000044690F8BD33E3B1032384F8BD332068EE
:1012900001F0DEFD254655F8107B6E460FCD0FC6DA
:1012A0000FCD0FC695E8030086E80300231D0ECB83
:1012B000384601F08FFD0021206801F0CFFD0023AA
:1012C0001AE080F8BC3303F069F8DDE7D900C81AEA
:1012D00082002244012082F83D0082F83C30A2F8CE
:1012E0004230002082F83F0050649064CA1A910096
:1012F000214408650133DBB20E2BE7D9002315E04A
:10130000D800C11A8A002244002182F8FD1182F817
:10131000FC3182F8FF11C2F80412C2F80812C21A96
:1013200090002044C0F810120133DBB20E2BE7D935
:10133000254655F8107B6E460FCD0FC60FCD0FC654
:1013400095E8030086E80300231D0ECB384601F024
:10135000CBFD002384F83830012384F8BD33636A61
:10136000012B05D0206801F091FE00200BB0F0BDEC
:10137000204600F003F8F5E70120704702460368B5
:101380000121C0F8F813002082F8F0039A6942F0B6
:1013900000629A61596D024A0A435A65704700BF5C
:1013A00003000010024A136843F48073136070470F
:1013B0000070004010B582B01B4B1A6C42F0805296
:1013C0001A641B6C03F080530193019B174A136846
:1013D00043F480331360FFF7CFFB0446134B5B6885
:1013E00013F4803F08D1FFF7C7FB001BB0F57A7FED
:1013F000F4D9032002B010BD0C4A136843F4003343
:101400001360FFF7B9FB0446084B5B6813F4003F19
:1014100007D1FFF7B1FB001BB0F57A7FF4D90320A9
:10142000E8E70020E6E700BF003802400070004017
:10143000002800F0DC8170B582B00446036813F028
:10144000010F29D0A24B9B6803F00C03042B1AD088
:101450009F4B9B6803F00C03082B0FD06368B3F518
:10146000803F40D0002B54D1994B1A6822F480322F
:101470001A601A6822F480221A6039E0944B5B6883
:1014800013F4800FEAD0924B1B6813F4003F03D093
:101490006368002B00F0AD81236813F0020F75D054
:1014A0008B4B9B6813F00C0F5ED0894B9B6803F04D
:1014B0000C03082B53D0E368002B00F08A80844A89
:1014C000136843F001031360FFF756FB0546804B9A
:1014D0001B6813F0020F73D1FFF74EFB401B02286D
:1014E000F5D9032088E17A4A136843F48033136006
:1014F00063682BB3FFF740FB0546754B1B6813F47D
:10150000003FC9D1FFF738FB401B6428F5D9032001
:1015100072E1B3F5A02F09D06D4B1A6822F4803226
:101520001A601A6822F480221A60E1E7684B1A6890
:1015300042F480221A601A6842F480321A60D7E7B7
:10154000FFF71AFB0546624B1B6813F4003FA3D05C
:10155000FFF712FB401B6428F5D903204CE15C4BDC
:101560005B6813F4800FA6D1594B1B6813F0020F70
:1015700004D0E368012B01D001203DE1544A1368F7
:1015800023F0F803216943EAC1031360236813F0D1
:10159000080F46D0636983B34D4A536F43F001038C
:1015A0005367FFF7E9FA0546494B5B6F13F0020FEB
:1015B00037D1FFF7E1FA401B0228F5D903201BE1E0
:1015C000434A136823F0F803216943EAC103136017
:1015D000DCE73F4A136823F001031360FFF7CCFAFE
:1015E00005463B4B1B6813F0020FCFD0FFF7C4FA40
:1015F000401B0228F5D90320FEE0354A536F23F043
:1016000001035367FFF7B8FA0546314B5B6F13F0E0
:10161000020F06D0FFF7B0FA401B0228F5D90320CD
:10162000EAE0236813F0040F7ED0294B1B6C13F003
:10163000805F1ED1264B1A6C42F080521A641B6CDC
:1016400003F080530193019B0125224B1B6813F487
:10165000807F10D0A368012B21D0002B3CD11C4BE4
:101660001A6F22F001021A671A6F22F004021A6739
:101670001AE00025E9E7174A136843F48073136002
:10168000FFF77AFA0646134B1B6813F4807FE1D10B
:10169000FFF772FA801B6428F5D90320ACE00C4AEE
:1016A000136F43F001031367A3685BB3FFF764FA9A
:1016B0000646074B1B6F13F0020F34D1FFF75CFA9D
:1016C000801B41F288339842F3D9032094E000BF95
:1016D0000038024000700040052B09D0484B1A6FBB
:1016E00022F001021A671A6F22F004021A67DBE780
:1016F000434B1A6F42F004021A671A6F42F001025C
:101700001A67D1E7FFF738FA06463D4B1B6F13F017
:10171000020F08D0FFF730FA801B41F2883398425D
:10172000F3D9032068E0F5B9A369002B63D0344AEC
:10173000926802F00C02082A60D0022B19D0304ABD
:10174000136823F080731360FFF716FA04462C4BDE
:101750001B6813F0007F48D0FFF70EFA001B022829
:10176000F5D9032048E0264A136C23F08053136414
:10177000DAE7234A136823F080731360FFF7FCF95C
:1017800005461F4B1B6813F0007F06D0FFF7F4F9E6
:10179000401B0228F5D903202EE0E369226A134397
:1017A000626A43EA8213A26A5208013A43EA024398
:1017B000E26A43EA0263226B43EA0273104A53600F
:1017C000136843F080731360FFF7D6F904460C4B9F
:1017D0001B6813F0007F06D1FFF7CEF9001B02282B
:1017E000F5D9032008E0002006E0002004E00120F5
:1017F0007047012000E0002002B070BD0120FBE72F
:1018000000380240324B9B6803F00C03042B5CD081
:10181000082B01D02F4870472DE9F04B2C4B5A680C
:1018200002F03F025B6813F4800F2BD0284B5B68FB
:10183000C3F388131E4600275C010025E41A65EBFC
:101840000705A90141EA9461A001001B61EB0501B4
:10185000CB0043EA5073C400A01943EB07014B02CD
:1018600043EAD0534402204619460023FEF7E8FC21
:10187000174B5B68C3F3014301335B00B0FBF3F02C
:10188000BDE8F08B124B5B68C3F388131E4600273C
:101890005C010025E41A65EB0705A90141EA9461A2
:1018A000A001001B61EB0501CB0043EA5073C400AB
:1018B000A01943EB07018B0243EA905384022046B0
:1018C00019460023FEF7BCFCD2E70348704700BF6F
:1018D000003802400024F40000127A00002800F0D2
:1018E000A28070B50446524B1B6803F00F038B4275
:1018F0000CD24F4A136823F00F030B431360136895
:1019000003F00F038B4201D0012070BD236813F058
:10191000020F17D013F0040F04D0464A936843F423
:10192000E0539360236813F0080F04D0414A936892
:1019300043F4604393603F4A936823F0F003A06848
:10194000034393600D46236813F0010F31D06368A1
:10195000012B20D0022B25D0364A126812F0020F3C
:1019600063D034498A6822F0030213438B60FFF787
:1019700003F906462F4B9B6803F00C036268B3EB38
:10198000820F16D0FFF7F8F8801B41F28833984297
:10199000F0D90320B9E7274A126812F4003FE0D1DA
:1019A0000120B2E7234A126812F0007FD9D101204A
:1019B000ABE71F4B1B6803F00F03AB420CD91C4A6B
:1019C000136823F00F032B431360136803F00F0316
:1019D000AB4201D0012098E7236813F0040F06D032
:1019E000144A936823F4E053E1680B43936023683F
:1019F00013F0080F07D00F4A936823F4604321695E
:101A000043EAC1039360FFF7FDFE0A4B9B68C3F3F3
:101A10000313094AD35CD840084B1860002002F039
:101A200005FD002071E70120704701206DE700BF30
:101A3000003C0240003802405C4F00080C000020CF
:101A4000014B1868704700BF0C00002008B5FFF775
:101A5000F7FF044B9B68C3F38223034AD35CD8404F
:101A600008BD00BF003802406C4F000808B5FFF702
:101A7000E7FF044B9B68C3F34233034AD35CD8406F
:101A800008BD00BF003802406C4F00080F23036000
:101A90000B4B9A6802F0030242609A6802F0F0026F
:101AA00082609A6802F4E052C2609B68DB0803F42B
:101AB000E0530361034B1B6803F00F030B60704797
:101AC00000380240003C0240F0B583B00446036891
:101AD00013F0010F0CD0B54B9A6822F400029A6003
:101AE0009A68416B0A439A60436BC3B1002600E0D9
:101AF0000026236813F4002F15D0AC4AD2F88C309E
:101B000023F44013E16B0B43C2F88C30E36BB3F565
:101B1000801F06D0002B00F04581002504E001263F
:101B2000E7E70126F6E70025236813F4801F0FD0AE
:101B30009E4AD2F88C3023F44003216C0B43C2F848
:101B40008C30236CB3F5800F00F02E8103B9012592
:101B5000236813F0807F00D0012613F0200F40F09F
:101B60002781236813F0100F0CD0904BD3F88C20F2
:101B700022F08072C3F88C20D3F88C20A16B0A432A
:101B8000C3F88C20236813F4804F08D0874AD2F81A
:101B9000903023F44033616E0B43C2F890302368D9
:101BA00013F4004F08D0814AD2F8903023F4402338
:101BB000A16E0B43C2F89030236813F4803F08D025
:101BC0007A4AD2F8903023F44013E16E0B43C2F806
:101BD0009030236813F4003F08D0744AD2F8903054
:101BE00023F44003216F0B43C2F89030236813F0B5
:101BF000400F08D06D4AD2F8903023F00303616C97
:101C00000B43C2F89030236813F0800F08D0674A66
:101C1000D2F8903023F00C03A16C0B43C2F8903043
:101C2000236813F4807F08D0604AD2F8903023F004
:101C30003003E16C0B43C2F89030236813F4007F4B
:101C400008D05A4AD2F8903023F0C003216D0B43DC
:101C5000C2F89030236813F4806F08D0534AD2F84A
:101C6000903023F44073616D0B43C2F890302368C9
:101C700013F4006F08D04D4AD2F8903023F440633B
:101C8000A16D0B43C2F89030236813F4805F08D035
:101C9000464AD2F8903023F44053E16D0B43C2F82A
:101CA0009030236813F4005F08D0404AD2F8903097
:101CB00023F44043216E0B43C2F89030236813F4A1
:101CC000800F08D0394AD2F8903023F08063A16F9A
:101CD0000B43C2F89030236813F4001F0DD0334A31
:101CE000D2F8903023F00063E16F0B43C2F89030DC
:101CF000E36FB3F1006F00F0C180236813F0080FA9
:101D000000D0012513F4802F08D0284AD2F8903053
:101D100023F04073616F0B43C2F89030236813F4D3
:101D2000000F09D0214AD2F8903023F08053D4F824
:101D300080100B43C2F89030236813F0806F09D0F5
:101D40001A4AD2F8903023F00053D4F884100B4391
:101D5000C2F89030236813F0006F09D0134AD2F80C
:101D60008C3023F00073D4F888100B43C2F88C3009
:101D7000236813F0805F09D00C4AD2F88C3023F02E
:101D80008063D4F88C100B43C2F88C30002E77D1CE
:101D90002368B3F1007F73D0002D40F00481002050
:101DA00003B0F0BD0125BFE60126CFE600380240B2
:101DB000B74B1A6C42F080521A641B6C03F08053CC
:101DC0000193019BB34A136843F480731360FEF7D9
:101DD000D3FE0746AF4B1B6813F4807F06D1FEF796
:101DE000CBFEC01B6428F5D90320D9E7A84B1B6F95
:101DF00013F4407315D0226B02F440729A4210D053
:101E0000A34B1A6F22F44072196F41F480311967A5
:101E1000196F21F4803119671A671B6F13F0010FD6
:101E200012D1236B03F44072B2F5407F1DD0984A63
:101E3000936823F4F813936095490B6F226BC2F3F8
:101E40000B0213430B678CE6FEF796FE0746904B9A
:101E50001B6F13F0020FE4D1FEF78EFEC01B41F2A0
:101E600088339842F3D903209AE78948826822F49C
:101E7000F812894919400A438260DDE701253CE7F1
:101E8000834A136823F080631360FEF775FE0646ED
:101E90007F4B1B6813F0006F06D0FEF76DFE801BB2
:101EA0006428F5D903207BE7236813F0010F13D0D2
:101EB000636B8BB9764AD2F88430D2F884106068AC
:101EC00003F4403343EA801301F070610B43A168CF
:101ED00043EA0173C2F88430236813F4002F03D05F
:101EE000E26BB2F5801F06D013F4801F1ED0236C66
:101EF000B3F5800F1AD1664AD2F88430D2F8841034
:101F0000606803F4403343EA8013E06843EA006307
:101F100001F0E0410B43C2F88430D2F88C3023F05A
:101F20001F03616A01390B43C2F88C30236813F038
:101F3000807F11D0564AD2F88400D2F884106668A7
:101F400023691B0443EA861300F07060034301F029
:101F5000E0410B43C2F88430236813F0007F0DD0BA
:101F6000626823691B0443EA8213E26843EA02635E
:101F7000A26843EA0273464AC2F88430444A1368AE
:101F800043F080631360FEF7F7FD0646404B1B6885
:101F900013F0006F7FF400AFFEF7EEFD801B6428A6
:101FA000F4D90320FCE63A4A136823F08053136007
:101FB000FEF7E2FD0546364B1B6813F0005F06D0C6
:101FC000FEF7DAFD401B6428F5D90320E8E6236814
:101FD00013F4002F01D0E26B22B113F4801F1DD047
:101FE000236CDBB92A4AD2F88830D2F888106069AD
:101FF00003F4403343EA8013A06943EA006301F02D
:10200000E0410B43C2F88830D2F88C3023F4F85307
:10201000A16A013943EA0123C2F88C30236813F422
:10202000001F03D0E36FB3F1006F37D0236813F0C4
:10203000080F19D0164AD2F88810D2F88830606993
:1020400003F4403343EA801301F070610B43E1690C
:1020500043EA0173C2F88830D2F88C3023F440335D
:10206000E16A0B43C2F88C30094A136843F080538D
:102070001360FEF781FD0446054B1B6813F0005FFB
:102080001FD1FEF779FD001B6428F5D9032087E6F0
:102090000038024000700040FFFCFF0F0A4AD2F8EF
:1020A0008800D2F888106569236A1B0443EA851307
:1020B00000F07060034301F0E0410B43C2F8883048
:1020C000B4E700206CE600BF0038024070470268A9
:1020D000D36843F00103D3600268136843F001033F
:1020E000136000207047704770477047704710B505
:1020F000044603681A6912F0020F11D0DA6812F070
:10210000020F0DD06FF002021A61012303770368FA
:102110009B6913F0030F79D0FFF7E6FF00232377C5
:1021200023681A6912F0040F12D0DA6812F0040F53
:102130000ED06FF004021A610223237723689B6993
:1021400013F4407F68D02046FFF7CEFF00232377AB
:1021500023681A6912F0080F12D0DA6812F0080F1B
:102160000ED06FF008021A61042323772368DB691D
:1021700013F0030F57D02046FFF7B6FF0023237755
:1021800023681A6912F0100F12D0DA6812F0100FDB
:102190000ED06FF010021A61082323772368DB69E1
:1021A00013F4407F46D02046FFF79EFF002323779D
:1021B00023681A6912F0010F03D0DA6812F0010FD8
:1021C0003FD123681A6912F0800F03D0DA6812F049
:1021D000800F3DD123681A6912F4807F03D0DA683A
:1021E00012F0800F3BD123681A6912F0400F03D020
:1021F000DA6812F0400F39D123681A6912F0200F03
:1022000003D0DA6812F0200F37D110BDFFF76BFF53
:102210002046FFF76AFF81E72046FFF764FF20466C
:10222000FFF763FF92E72046FFF75DFF2046FFF7C9
:102230005CFFA3E72046FFF756FF2046FFF755FF58
:10224000B4E76FF001021A61204601F0EFFFB8E732
:102250006FF080021A61204600F0B6F8BAE76FF01E
:1022600080021A61204600F0AFF8BCE76FF0400230
:102270001A612046FFF73AFFBEE76FF020021A61AD
:10228000204600F0A0F8C0E770B403683A4CA042C2
:1022900014BF00240124B0F1804F14BF224644F043
:1022A0000102AAB9354DA84214BF00250125344EBC
:1022B000B0420DD065B905F1804505F58235A842DB
:1022C00014BF0025012506F50066B04200D01DB1FF
:1022D00023F070034D682B43002A33D1274A9042E4
:1022E00014BF00220122264DA8422BD052BB02F17E
:1022F000804202F58232904214BF0022012205F58D
:102300000065A8421ED0EAB91E4A904214BF0022BE
:10231000012205F59A35A84214D09AB91A4A90427A
:1023200014BF0022012205F50065A8420AD04AB96F
:10233000164A904214BF00220122A5F59635A84204
:1023400000D01AB123F44073CA68134323F080030A
:102350004A69134303608A68C2620A6882620C4B4E
:10236000984214BF234644F001030BB10B69036389
:102370000123436170BC7047000001400008004029
:1023800000040040004401400018004000200040CC
:1023900000040140A8B110B5044690F83D305BB18F
:1023A000022384F83D30211D2068FFF76DFF0123D3
:1023B00084F83D30002010BD80F83C30FFF786FEE9
:1023C000EEE7012070477047704790F86930DBB244
:1023D000212B2ED1B0F852309BB28BB18368B3F56C
:1023E000805F19D0C36C5A1CC2641A7803689A6261
:1023F000B0F85230013B9BB2A0F852300020704739
:102400000268136823F0800313600268136843F0C6
:1024100040031360002070470369002BE2D1C36CB6
:102420001B880268C3F308039362C36C0233C3645E
:10243000DEE7022070470268136823F0C0031360D0
:10244000202380F8693070470268136823F4907382
:1024500013600268936823F001039360202380F8DF
:102460006A30704738B590F86A50EDB2202D3BD1F4
:10247000B2FA82F56D09002908BF0125002D35D17A
:1024800090F86830012B33D013460A4604460121E8
:1024900080F868104265A0F85830C566222180F89F
:1024A0006A10416E1348C863616E13480864616E18
:1024B0001248C864616E0D6521682431606EFEF7B4
:1024C000A5FC84F868502268136843F48073136095
:1024D0002268936843F0010393602268936843F095
:1024E00040039360284600E0022038BD0120FCE74D
:1024F0000220FAE7512600081527000821270008C6
:102500002DE9F04105460F4616469846069C2B6875
:10251000DB6937EA03030CBF01230023B3421DD15B
:10252000B4F1FF3FF3D02CB1FEF726FBA0EB08007F
:10253000A042ECD32A68136823F4D07313602A688E
:10254000936823F001039360202385F8693085F8B0
:102550006A30002385F86830032000E00020BDE8E1
:10256000F0812DE9F04182B01E4690F86930DBB26F
:10257000202B52D104460D469046B2FA82F35B09F5
:10258000002908BF0123002B4CD190F86830012BA3
:102590004AD0012380F868300023C366212380F8E5
:1025A0006930FEF7E9FA0746A4F85080A4F8528093
:1025B00003E02A7823689A620135B4F852309BB25E
:1025C000DBB1B4F85230013B9BB2A4F85230009614
:1025D0003B46002280212046FFF792FF30BBA368D4
:1025E000B3F5805FE5D12369002BE2D135F8023BDA
:1025F0002268C3F308039362DFE700963B4600229C
:1026000040212046FFF77CFF034688B9202284F84A
:102610006920002284F8682000E00223184602B0F6
:10262000BDE8F0810123F9E70223F7E70323F5E78B
:102630000323F3E7704708B501680B6823F04003F4
:102640000B60202380F86930FFF7F4FF002008BDFD
:1026500008B5836B0268126812F4807F14D10022DF
:10266000A3F85A2019680A6822F480720A6019686F
:102670008A6822F001028A6019688A6822F04002A2
:102680008A60202283F86A20184601F0C1FD08BD47
:10269000B0F85C2090F86A30DBB2222B32D110B552
:1026A0008368B3F5805F10D00368596AD2B2436D76
:1026B0005C1C44650A401A70B0F85A30013B9BB26A
:1026C000A0F85A306BB1002010BD0369002BEBD18C
:1026D000436D0168496A0A401A80436D02334365BD
:1026E000EAE70268136823F4907313600268936842
:1026F00023F001039360202380F86A3001F088FD05
:102700000020E1E70268936943F008039361022027
:102710007047704708B5806BFFF7FBFF08BD704737
:1027200010B5846B0023A4F85A30A4F8523094F802
:102730006930DBB2212B0CD094F86A30DBB2222B4B
:1027400010D0E36E43F01003E3662046FFF7E7FF87
:1027500010BD23689B6813F0800FEDD02046FFF773
:102760006AFEE9E723689B6813F0400FE9D0204632
:10277000FFF76AFEE5E7000038B504460268D36952
:102780001068916813F00F0505D113F0200F02D0E7
:1027900010F0200F5FD1002D73D011F0010102D194
:1027A00010F4907F6DD013F0010F07D010F4807FEC
:1027B00004D001251562E26E2A43E26613F0020F8F
:1027C00007D031B1226802251562E26E42F00402A0
:1027D000E26613F0040F07D031B1226804251562B8
:1027E000E26E42F00202E26613F0080F09D010F028
:1027F000200F00D129B1226808211162E26E0A433C
:10280000E266E26E002A48D013F0200F02D010F0EA
:10281000200F24D1E36E13F0080F04D123689B68C6
:1028200013F0400F27D02046FFF70EFE23689A686A
:1028300012F0400F1BD09A6822F040029A60636E3B
:102840008BB11A4A1A65606EFEF71AFB28B3606EE8
:10285000036D984721E02046FFF71AFF1DE0204650
:10286000FFF716FFD6E72046FFF759FF15E0204691
:10287000FFF755FF11E02046FFF751FF0023E36605
:102880000BE013F0800F02D010F0800F06D113F090
:10289000400F02D010F0400F04D138BD2046FFF7A2
:1028A00094FDFAE72046FFF7C6FEF6E7B1280008D8
:1028B00008B5806B0023A0F85A30A0F85230FFF71B
:1028C0002EFF08BD10B504468368026913434269B0
:1028D0001343C2691343016808689D4A02401343C9
:1028E0000B602268536823F44053E1680B43536044
:1028F000A369226A1A4321688B6823F43063134367
:102900008B602368934A934219D0934A93422AD00A
:10291000924A934240D0924A934255D0914A934270
:102920006AD0914A934200F08280904A934200F02C
:1029300099808F4A934200F0B0801022C9E002F5DE
:102940009432D2F8902002F00302032A03D8DFE881
:1029500002F0BF0604081022BBE00222B9E0042204
:10296000B7E00822B5E002F5FA32D2F8902002F082
:102970000C020C2A08D8DFE802F0BA0707070B0799
:102980000707090707070D001022A2E00222A0E0B6
:1029900004229EE008229CE002F5F832D2F8902052
:1029A00002F03002102A0DD005D9202A08D0302A92
:1029B00004D108228DE00AB900228AE0102288E0C2
:1029C000022286E0042284E002F5F632D2F890205A
:1029D00002F0C002402A0DD005D9802A08D0C02AB2
:1029E00004D1082275E00AB9002272E0102270E0DA
:1029F00002226EE004226CE002F5F432D2F890205C
:102A000002F44072B2F5807F0FD007D9B2F5007F93
:102A100009D0B2F5407F04D108225AE00AB9002259
:102A200057E0102255E0022253E0042251E002F563
:102A30009232D2F8902002F44062B2F5806F0FD04B
:102A400007D9B2F5006F09D0B2F5406F04D1082262
:102A50003FE00AB901223CE010223AE0022238E0CD
:102A6000042236E002F5E032D2F8902002F440521F
:102A7000B2F5805F0FD007D9B2F5005F09D0B2F58B
:102A8000405F04D1082224E00AB9002221E010228C
:102A90001FE002221DE004221BE002F5DE32D2F824
:102AA000902002F44042B2F5804F0FD007D9B2F522
:102AB000004F09D0B2F5404F04D1082209E00AB90D
:102AC000002206E0102204E0022202E0042200E0DC
:102AD0000122E169B1F5004F0BD0082A00F29B807A
:102AE000DFE802F0616D7999839999998F0000224E
:102AF000EFE7082A54D8DFE802F0051722533F53C6
:102B000053534A00FEF7A2FF6268530803EB4003E9
:102B1000B3FBF2F39BB2002023F00F02C3F3420396
:102B200013432268D36010BDFEF7A0FF626853080C
:102B300003EB4003B3FBF2F39BB20020ECE76268C7
:102B40000C4B03EB5203B3FBF2F39BB20020E3E721
:102B5000F369FFEF001001400044004000480040CE
:102B6000004C00400050004000140140007800403C
:102B7000007C00400048E801FEF744FE626853080C
:102B800003EB4003B3FBF2F39BB20020C4E762689F
:102B9000530803F58033B3FBF2F39BB20020BBE78D
:102BA00001200023B8E7FEF751FF636800EB5300F4
:102BB000B0FBF3F0236880B2D8600020B3E7FEF7E3
:102BC00055FF636800EB5300B0FBF3F0236880B25D
:102BD000D8600020A7E76168104A02EB5102B2FBFF
:102BE000F1F292B2DA6000209DE7FEF70BFE636817
:102BF00000EB5300B0FBF3F0236880B2D8600020F4
:102C000091E761684A0802F50042B2FBF1F292B224
:102C1000DA60002087E7012085E700BF0024F40088
:102C2000436A13F0010F06D00268536823F400339F
:102C3000816A0B435360436A13F0020F06D00268A7
:102C4000536823F48033C16A0B435360436A13F023
:102C5000040F06D00268536823F48023016B0B43F2
:102C60005360436A13F0080F06D00268536823F4D8
:102C70000043416B0B435360436A13F0100F06D0BF
:102C80000268936823F48053816B0B439360436A1B
:102C900013F0200F06D00268936823F40053C16B31
:102CA0000B439360436A13F0400F0AD002685368E5
:102CB00023F48013016C0B435360036CB3F5801F46
:102CC0000BD0436A13F0800F06D00268536823F4D8
:102CD0000023816C0B43536070470268536823F4F0
:102CE000C003416C0B435360EBE710B582B0044660
:102CF0000023C366FDF740FF2268126812F0080F38
:102D000009D1202384F8693084F86A30002084F8DF
:102D1000680002B010BD6FF07E43009303460022AE
:102D20004FF400112046FFF7EBFB0028E9D0032009
:102D3000EFE778B310B5044690F869300BB324235D
:102D400084F869302268136823F001031360204679
:102D5000FFF7B8FD012813D0636ABBB92268536836
:102D600023F4904353602268936823F02A0393600E
:102D70002268136843F0010313602046FFF7B5FF94
:102D800010BD80F8683001F07FFAD8E72046FFF7E1
:102D900047FFE3E701207047002301330C4A9342C9
:102DA00011D80269002AF8DA036943F001030361CC
:102DB00000230133064A934207D8026912F0010F3B
:102DC000F7D100207047032070470320704700BFF1
:102DD000400D030084B010B5044603A880E80E003F
:102DE000089B012B1ED1A36B23F48033A363E268FD
:102DF000164B1340E360E36823F44013E3600F9B3A
:102E0000012B0AD02046FFF7C7FF069B012B14D0E9
:102E10000020BDE8104004B07047E36843F480131D
:102E2000E360EFE7E36843F04003E3602046FFF729
:102E3000B3FF4FF48033A363E7E7A36843F00603CF
:102E4000A360A36843F02003A360E1E7BFFFBDFFD9
:102E5000836823F0010383600020704708B5C368CE
:102E600023F0C043C360012909D069B9C36843F0A6
:102E70008043C3603220FDF785FE002008BDC36893
:102E800043F00053C360F5E70120F7E7890141F003
:102E90002001016100230133054A934205D80269EC
:102EA00012F0200FF7D1002070470320704700BFB9
:102EB000400D03001023036100230133054A9342B0
:102EC00005D8026912F0100FF7D1002070470320D7
:102ED000704700BF400D0300D0F800381943C0F818
:102EE000001800207047000084B0F8B5044607A819
:102EF00080E80E002546002306E003F1400204EBC3
:102F000082020021516001330E2BF6D9A36B43F4EA
:102F10000013A363119F5FB9A36B23F40013A36392
:102F2000236843F040032360236843F08003236059
:102F30000023C4F8003E04F50066D4F80038C4F855
:102F400000380C9B012B08D0032B17D1099B83B9A8
:102F500000212046FFF7C0FF14E0099B23B90021A0
:102F60002046FFF7B9FF0DE001212046FFF7B4FF2F
:102F700008E001212046FFF7AFFF03E003212046D0
:102F8000FFF7AAFF10212046FFF780FF2046FFF73A
:102F900091FF002333617361F3610AE0C3B94FF01D
:102FA0000060C2F8000900220A614FF67F328A6091
:102FB00001330799994210D905EB431202F51061CC
:102FC000D2F800090028E9DB0020C2F80009EAE78E
:102FD0004FF09040C2F80009E5E700230AE0CBB1CA
:102FE0004FF0904CC2F800CB002202614FF67F32C6
:102FF00082600133994212D905EB431202F5306029
:10300000D2F800CBBCF1000FE9DB4FF0000CC2F8A6
:1030100000CBE9E74FF0006CC2F800CBE4E733697E
:1030200023F4807333610A9B012B1AD00022A26122
:103030006FF0804262611BB9A36943F01003A36182
:10304000A2690E4B1343A3610D9B1BB1A36943F00F
:103050000803A361012F0BD00020BDE8F84004B0A5
:103060007047074A3263316B064A0A433263DDE731
:10307000A269054B1343A361EEE700BF00383C8013
:1030800000018000030001000400004008B5D0F8F2
:10309000043843F00203C0F804380320FDF772FD42
:1030A000002008BD842801D00330704700207047FD
:1030B00008B500F0BBF9002008BDF0B585B00F469B
:1030C000446805680669B0F90800FFF7EBFF03AB39
:1030D000019300903B46B2B22946204600F074F9B5
:1030E000012802D1039805B0F0BD0020FBE700F1F4
:1030F000080343604FF0FF328260C3600361002326
:103100000360704700230361704743684B609A680F
:103110008A609A68516099600861036801330360AE
:10312000704730B40D68B5F1FF3F02D000F10802DE
:1031300002E0026904E01A4653681C68AC42FAD9FE
:1031400053684B6099608A6051600861036801337D
:10315000036030BC7047036942688168916082688F
:10316000416851605A68824205D0002202611868A5
:1031700001381860704782685A60F6E7074B9B6A0F
:103180001B6833B1054B9A6AD268D2685268DA621A
:103190007047024B4FF0FF32DA627047BC010020EB
:1031A00010B50446006B00F095FD204600F092FD3E
:1031B00010BD2DE9F04780469946089D099F0A9C5D
:1031C000266B6FF04043134406EB830626F0070698
:1031D00000230F2B07D8C85CE21882F83400CA5CC1
:1031E0000AB10133F5E7002384F84330062D00D9F6
:1031F0000625E56265644FF0000AC4F848A0201D6A
:10320000FFF780FF04F11800FFF77CFF2461C5F190
:103210000705A5616462C4F84CA084F850A04A4632
:103220004146304600F06AFB206007B13C60BDE8D3
:10323000F087000070B5002407E004EB84029300DF
:1032400010481844FFF753FF0134062CF5D90E4CF3
:1032500004F1BC063046FFF74AFF04F1D0052846CA
:10326000FFF745FF04F11400FFF741FF04F1E4000C
:10327000FFF73DFF2046FFF73AFFA662C4F8F8507B
:1032800070BD00BFEC010020BC01002038B5054630
:1032900000F060FB264BD3F8FC200132C3F8FC2081
:1032A000D3F8003173B1224BD3F804318BB9204BE2
:1032B000D3F80031DA6AEB6A9A420AD81C4BC3F899
:1032C000005106E01A4BC3F80051D3F8FC30012B33
:1032D0002AD0174CD4F808310133C4F80831EB6A0E
:1032E00001229A40D4F80C110A43C4F80C2104F1CD
:1032F000300003EB83039A00291D1044FFF705FFFC
:1033000000F04EFBD4F804316BB1D4F80031DA6A26
:10331000EB6A9A4207D2074B4FF080521A60BFF314
:103320004F8FBFF36F8F38BDFFF784FFD1E700BF2A
:10333000BC01002004ED00E070B504460E46214BB0
:10334000D3F81051D3F800010430FFF704FF60B93F
:103350001C4BD3F80021D16A012202FA01F1D3F803
:103360000C2122EA0102C3F80C21B4F1FF3F14BF83
:1033700000230123002E08BF002393B92C44114BD6
:10338000D3F800315C60A54212D80E4DA86AD5F87A
:1033900000110431FFF7C5FEEB6AA34210D9EC62BD
:1033A0000EE00848D0F800110431FFF7AEFE07E048
:1033B000044BD3F8F800D3F800110431FFF7B1FE45
:1033C00070BD00BFBC0100202DE9F04385B0074669
:1033D000884615469946900000F0FCFBF8B1064679
:1033E000542000F0F7FB0446A8B10663D4B10023D3
:1033F000039302940D9B01930C9B00934B462A462A
:1034000041463846FFF7D5FE2046FFF73FFF012033
:1034100005B0BDE8F083304600F05CFCE6E74FF015
:10342000FF30F5E74FF0FF30F2E7000000B583B062
:10343000194B019300230093802218491848FFF785
:10344000C3FF012805D0B0F1FF3F19D003B05DF8EC
:1034500004FB4FF0500372B683F31188BFF36F8FF4
:10346000BFF34F8F62B60F4B4FF0FF32DA6201228B
:10347000C3F804210022C3F8102100F009FBE5E79E
:103480004FF0500372B683F31188BFF36F8FBFF311
:103490004F8F62B6FEE700BFD8020020944F0008AD
:1034A000D1370008BC010020034AD2F8183101339B
:1034B000C2F81831704700BFBC010020014BD3F89F
:1034C00010017047BC0100202DE9F041414BD3F8B9
:1034D0001831002B6ED13F4BD3F810510135C3F892
:1034E0001051DDB99B6A1B6853B14FF0500372B69F
:1034F00083F31188BFF36F8FBFF34F8F62B6FEE780
:10350000344B9A6AD3F8F8109962C3F8F820D3F8CC
:1035100020210132C3F82021FFF730FE2D4BDB6A5A
:10352000AB423DD900242B4AD2F80031DB6A03EBD1
:10353000830399000A44136B012B42D9012440E014
:103540000124244B9B6A1B6863B3224B9B6ADB6894
:10355000DE6873689D422AD306F104084046FFF7EF
:10356000FAFDB36A1BB106F11800FFF7F4FDF36A28
:1035700001229A40174FD7F80C110A43C7F80C21C3
:1035800007F1300003EB83039A0041461044FFF734
:10359000BCFDF26AD7F80031DB6A9A42D0D2D0E79C
:1035A0000024CEE70B4B4FF0FF32DA62BBE7094A4B
:1035B000D362B8E7074AD2F824310133C2F8243184
:1035C0000024044BD3F8283103B101242046BDE880
:1035D000F08100BFBC0100203A4BD3F8183153B939
:1035E0004FF0500372B683F31188BFF36F8FBFF3B0
:1035F0004F8F62B6FEE770B500F0ACF9314BD3F8EF
:103600001821013AC3F81821D3F81831002B54D1EE
:103610002C4BD3F8FC3023B9002400F0C1F920462C
:1036200070BD0024274B5B692BB3264D2B6ADC68E9
:1036300004F11800FFF78FFD261D3046FFF78BFDC4
:10364000E36A01229A40D5F80C110A43C5F80C210F
:1036500005F1300003EB83039A0031461044FFF775
:1036600054FDE26AD5F80031DB6A9A42DAD30122CE
:10367000C5F82821D6E70CB1FFF780FD114BD3F830
:10368000244164B1FFF720FF18B10E4B0122C3F8AB
:103690002821013CF6D10B4B0022C3F82421094B11
:1036A000D3F828315BB1084B4FF080521A60BFF35A
:1036B0004F8FBFF36F8F0124AFE70024ADE70024E5
:1036C000ABE700BFBC01002004ED00E038B560B1FD
:1036D0000546A9B94FF0500372B683F31188BFF3C2
:1036E0006F8FBFF34F8F62B6FEE74FF0500372B695
:1036F00083F31188BFF36F8FBFF34F8F62B6FEE77E
:103700001C4BD3F8183153B14FF0500372B683F30A
:103710001188BFF36F8FBFF34F8F62B6FEE70C4681
:10372000FFF7C2FE134BD3F810012A6814448242FB
:1037300018D9A2420CD82C60FFF74EFF38B90E4BB7
:103740004FF080521A60BFF34F8FBFF36F8F38BDB9
:10375000A04201D32C60EFE72C600021201AFFF774
:10376000EBFDE9E7A24201D8A04201D22C60F4E7C8
:103770002C60E1E7BC01002004ED00E038B5134BFC
:10378000D3F814310BB3FFF78FFE104BD3F8E4409E
:10379000FFF722FF002CF2D000F0DCF80B4CD4F83D
:1037A000F030DD68281DFFF7D6FCD4F8FC30013B73
:1037B000C4F8FC30D4F81431013BC4F8143100F0E3
:1037C000EFF82846FFF7ECFCD9E738BDBC01002034
:1037D00008B5FFF7D3FF064B1B6B012BF9D9054B3F
:1037E0004FF080521A60BFF34F8FBFF36F8FF0E737
:1037F000BC01002004ED00E0234BD3F8183123B1C5
:10380000214B0122C3F8282170471F4A0023C2F828
:103810002831D2F80C31B3FA83F3DBB2C3F11F03C2
:1038200003EB830081000A44126B52B94FF050033E
:1038300072B683F31188BFF36F8FBFF34F8F62B6F9
:10384000FEE710B4104A9900CC18A0001044446B55
:10385000646844633032194488000830024494425A
:103860000BD0094903EB83039A000A44536BDB68CE
:10387000C1F800315DF8044B7047616802481422BA
:1038800002FB03025163ECE7BC0100200D4B1B68F7
:10389000B3F1FF3F0AD04FF0500372B683F31188A3
:1038A000BFF36F8FBFF34F8F62B6FEE74FF0500349
:1038B00072B683F31188BFF36F8FBFF34F8F62B679
:1038C000FEE700BF0800002006480068006880F39B
:1038D000088862B661B6BFF34F8FBFF36F8F00DF0A
:1038E00000BF000008ED00E0DFF80C00016841F4C3
:1038F000700101607047000088ED00E04FF08073B8
:1039000040F8043C21F0010140F8081C054B40F848
:103910000C3C40F8202C6FF0020340F8243C443863
:10392000704700BF8D380008000000000000000054
:10393000074B19680868B0E8F04F80F30988BFF3B7
:103940006F8F4FF0000080F311887047AFF3008055
:10395000BC0200204FF0500372B683F31188BFF30E
:103960006F8FBFF34F8F62B60B4A1368013313603A
:10397000012B00D07047094B1B6813F0FF0FF9D0E3
:103980004FF0500372B683F31188BFF36F8FBFF30C
:103990004F8F62B6FEE700BF0800002004ED00E094
:1039A0000A4B1B6853B94FF0500372B683F311886A
:1039B000BFF36F8FBFF34F8F62B6FEE7013B034A41
:1039C00013600BB983F31188704700BF0800002013
:1039D000EFF30980BFF36F8F154B1A681EF0100FBD
:1039E00008BF20ED108A20E9F04F10604DF8043D2B
:1039F0004FF0500072B680F31188BFF34F8FBFF3C2
:103A00006F8F62B6FFF7F8FE4FF0000080F3118869
:103A100008BC19680868B0E8F04F1EF0100F08BF26
:103A2000B0EC108A80F30988BFF36F8F704700BF36
:103A3000BC02002008B54FF0500372B683F3118822
:103A4000BFF36F8FBFF34F8F62B6FFF73DFD18B125
:103A5000034B4FF080521A60002383F3118808BD96
:103A600004ED00E0064B1B68064AA2FB03239B09FA
:103A7000013B054A1360054B07221A60704700BFDF
:103A80000C000020D34D621014E000E010E000E0D4
:103A900000B583B0224B1A78D2B20192FF221A707D
:103AA0001B78DBB28DF803309DF8033003F0500330
:103AB0001C4A13700723536009E01A4A5368013BFC
:103AC00053609DF803305B00DBB28DF803309DF846
:103AD000033013F0800FF0D1124A53681B0203F435
:103AE000E0635360019BDBB20D4A13700E4B1A6802
:103AF00042F470021A601A6842F070421A60FFF7CE
:103B0000B1FF0A4B00221A60FFF7EEFE084A136865
:103B100043F040431360FFF7D7FEFFF7B7FE00BF47
:103B200000E400E0E802002020ED00E008000020B2
:103B300034EF00E0104A12F0070F1AD0D11D21F027
:103B40000701C1F5705313440A460C490A6000206E
:103B500048601344083B23F007038B6058601860EB
:103B6000981A50601360C86008614FF000434B61C1
:103B700070474FF47053E8E708030020F00200207C
:103B800010B4134B1A6882421BD359685C188442E4
:103B900003D1406801445960184641684418A24264
:103BA00013D10B4CA468A2420DD05268114441605D
:103BB0001A6812680260984200D018605DF8044BE1
:103BC00070471346DEE70460F5E70260F3E700BFE5
:103BD000F002002070B50446FFF766FC3C4B9B6882
:103BE000CBB13B4B5B691C4268D1BCB1083414F0CB
:103BF000070F13D024F00704083404F007036BB157
:103C00004FF0500372B683F31188BFF36F8FBFF389
:103C10004F8F62B6FEE7FFF78DFFE2E7002C4FD033
:103C20002B4B1B69A3424DD3294B1D6801E02B464A
:103C300015466A68A24202D22A68002AF7D1244AAD
:103C40009268AA4240D01E6808362A681A606B68DB
:103C50001B1B102B12D9281910F0070F0AD04FF098
:103C6000500372B683F31188BFF36F8FBFF34F8F8A
:103C700062B6FEE743606C60FFF782FF6968144A32
:103C800013695B1A1361D268934201D2104AD36060
:103C90000F4B5B690B436B6000232B60FFF79CFCB1
:103CA00016F0070F12D04FF0500372B683F311884D
:103CB000BFF36F8FBFF34F8F62B6FEE70026EDE7CD
:103CC0000026EBE70026E9E70026E7E7304670BD6F
:103CD000F0020020002834D038B50446A0F10805D1
:103CE00050F8042C174949690A420AD14FF0500391
:103CF00072B683F31188BFF36F8FBFF34F8F62B635
:103D0000FEE750F8080C50B14FF0500372B683F341
:103D10001188BFF36F8FBFF34F8F62B6FEE722EAC1
:103D2000010244F8042CFFF7BFFB54F8041C054AB9
:103D300013690B4413612846FFF722FFFFF74CFC81
:103D400038BD7047F00200202DE9F04F8DB00024FF
:103D50000794089409940A940B94524B1A6B42F0FE
:103D600004021A631A6B02F004020192019A1A6BA0
:103D700042F080021A631A6B02F080020292029AE9
:103D80001A6B42F001021A631A6B02F001020392ED
:103D9000039A1A6B42F002021A631A6B02F00202D3
:103DA0000492049A1A6B42F008021A631A6B02F02A
:103DB00008020592059A1A6B42F040021A631B6BC7
:103DC00003F040030693069BDFF8E89022464FF489
:103DD00081414846FDF746FA334D224640212846A8
:103DE000FDF740FA4FF4005ACDF81CA02F4B089372
:103DF0000994DFF8C4B007A95846FDF743F9322308
:103E000007934FF00208CDF82080099403270A9702
:103E10000B260B9607A95846FDF734F9862307931E
:103E2000CDF8208009940A970B9607A92048FDF742
:103E300029F9CDF81CA0CDF8208009940A970B969B
:103E400007A94846FDF71EF94FF4814307934FF049
:103E5000010ACDF820A009940A9407A94846FDF765
:103E600011F940230793CDF820A009940A9407A9DB
:103E70002846FDF707F9802307930894099407A9BA
:103E80002846FDF7FFF84FF420530793CDF8208024
:103E900009940A970B9607A92846FDF7F3F80DB089
:103EA000BDE8F08F003802400018024000001110F9
:103EB00000000240000402400008024000B583B048
:103EC0000A4B1A6B42F480021A631B6B03F48003E3
:103ED0000193019B002205213920FCF779FE39204E
:103EE000FCF7A8FE03B05DF804FB00BF00380240F9
:103EF00008B50948094B03604FF461234360002370
:103F00008360C36003610C2242618361C361036209
:103F10004362FEF70EFF08BD204F00200014014051
:103F200008B50948094B03604FF4E13343600023AF
:103F30008360C36003610C2242618361C3610362D9
:103F40004362FEF7F6FE08BDD8410020004800405D
:103F500008B50A484FF0A0430360062343600222DD
:103F6000C2600023036182610122C2610362436275
:103F7000C2620363FDF780F908BD00BF4C42002018
:103F800010B52DED028BD0B0504800F0E5FC00F0EC
:103F9000D1FA35A800F0E6FA032135A800F002FBBB
:103FA0009FED4B0A35A800F0E7FA9FED4A0A35A8C5
:103FB00000F0E2FA9FED488AB0EE480A35A800F01A
:103FC000DBFAB0EE480A35A800F0D6FA142235A97B
:103FD000424800F0EEFA5BE001A800F0C3FA0121CC
:103FE00001A800F0DFFA002101A800F0DBFA0021AF
:103FF00001A800F0D7FA002101A800F0D3FA0021AF
:1040000001A800F0CFFA142201A9344800F0D1FA37
:10401000334B1B78002BFBD0402232491BA800F009
:10402000A4FA2F4B00221A701BA800F0AEFA1BA8AE
:1040300000F0ABFA1BA800F0A8FA1BA800F0A5FA44
:104040001BA800F0A2FA1BA800F09FFA1BA800F022
:104050009CFA1BA800F099FA1BA800F096FA1BA87E
:1040600000F093FA1BA800F090FA1BA800F08DFA5C
:104070001BA800F08AFA1BA800F087FA1BA800F022
:1040800084FA1BA800F081FA18214FA8FFF71EFB45
:10409000FFF714FA4F90402212491048FEF7E2F958
:1040A0000446002898D0022807D0012C09D0032C00
:1040B000EAD10D4800F050FCE6E70C4800F04CFC5B
:1040C000F3E70B4800F048FCF1E700BF9C4F000805
:1040D000CF662441787A244100000000204F002060
:1040E000083F0020504E0020C84F0008B44F000881
:1040F000C04F000830B5B9B0342200212BA8FCF71E
:104100004BFA002426942794289429942A949022E8
:10411000214602A8FCF740FAFDF744F9204B1A6C3F
:1041200042F080521A641B6C03F080530093009B92
:104130001C4B1A6842F440421A601B6803F4404367
:104140000193019B01232B934FF4A0232C93022571
:1041500031954FF48003329304233393D82334935F
:104160003595092336932BA8FDF762F9FDF722F95F
:104170000F232693279528944FF4A05329934FF4A7
:1041800080532A93072126A8FDF7A8FB064B02932C
:1041900015941894219402A8FDF796FC39B030BD0F
:1041A00000380240007000400009200000B587B0D0
:1041B000FCF74CFC124800F0CFFB124A136843F0A6
:1041C00001031360FCF7C0FCFFF794FFFFF7BCFD91
:1041D000FFF774FEFFF78CFEFFF7BAFEFFF7A0FEB5
:1041E00001AC094D0FCD0FC42B682360002101A83D
:1041F000FEF763FF054B1860FEF75AFFFEE700BFAE
:10420000D84F0008001000E0484F00084842002046
:1042100008B5044B01221A704FF480410248FDF7A3
:1042200027F808BD083F00200004024008B50268D6
:10423000034B9A4200D008BDFCF792FCFBE700BF9D
:10424000000001407047000000B583B00D4B1A6CB0
:1042500042F080521A641A6C02F080520092009A66
:104260005A6C42F480425A645B6C03F480430193BD
:10427000019B00220F216FF00100FCF7A9FC03B0A5
:104280005DF804FB0038024030B58BB00023059385
:1042900006930793089309930368394A934205D01C
:1042A0000446384A934222D00BB030BD364B1A6CCC
:1042B00042F480221A641A6C02F480220192019A5C
:1042C0001A6B42F008021A631B6B03F00803029397
:1042D000029B4FF440730593022306930323089334
:1042E0000723099305A92948FCF7CCFEDCE7264BF8
:1042F0005A6C42F020025A645A6C02F02002039277
:10430000039A1A6B42F004021A631B6B03F0040356
:104310000493049BC0230593022306930325089569
:104320000823099305A91A48FCF7ACFE19481A4B53
:1043300003604FF02063436000238360C3604FF449
:104340008062026143618361C3614FF44032026263
:10435000042242628562C3620363FCF7F1FC58B930
:104360000C4B63669C63002205214720FCF730FC60
:104370004720FCF75FFC97E7FFF764FFF0E700BF1B
:10438000004800400014014000380240000C024088
:1043900000080240504100202864024030B589B036
:1043A0000023039304930593069307930368B3F1E3
:1043B000A04F01D009B030BD1A4C236B43F001036C
:1043C0002363236B03F001030093009B4FF4E85336
:1043D000039302230493032306930A230793124DA6
:1043E00003A92846FCF74EFE4FF400730393002305
:1043F0000493059303A92846FCF744FE636B43F03E
:1044000080036363636B03F080030193019B636C20
:1044100043F480436364636C03F480430293029B20
:10442000C8E700BF003802400000024000B589B074
:10443000002201461920FCF7CBFB1920FCF7FAFB00
:10444000154B5A6C42F001025A645B6C03F0010395
:104450000193019B02A903A8FDF718FBFDF706FBDA
:1044600043000E48A0FB03239B0C013B0C480D4A64
:10447000026040F2E732C260436000230361836060
:10448000FDF788FF18B1012009B05DF804FB04486E
:10449000FDF71DFEF8E700BF0038024083DE1B4336
:1044A000B84F0020000001407047FEE7FEE7FEE73E
:1044B000FEE7704708B50248FDF719FE08BD00BFCA
:1044C000B84F002008B50248FCF7EEFC08BD00BF5D
:1044D0005041002008B50248FEF74EF908BD00BF64
:1044E000204F002010B40F4AD2F8883043F47003F4
:1044F000C2F888300C4B196841F0010119600020A6
:1045000098601C6809492140196009495960196877
:1045100021F480211960D8604FF0006393605DF84A
:10452000044B704700ED00E000380240FFFFF6FE4C
:104530001030002438B5094D094C2B4601220421C6
:1045400004F1EC00FCF7FCFA05F110031122042140
:1045500004F1F400FCF7F4FA38BD00BF10000020AD
:104560000C3F002000224266704738B504461546CD
:1045700000F030F9656638BD90F8643010EE102A0E
:10458000C250436E043343667047436E002B07DD11
:10459000043B436650FA83F31B6800EE103A704701
:1045A0000023FAE790F86430C150436E0433436649
:1045B0007047F0B583B007460E461546002409E063
:1045C000335D02A901F8013D322301223846FDF78F
:1045D000C8FF0134AC42F3DB002003B0F0BD0000A3
:1045E000DFF834D0002103E00C4B5B58435004311A
:1045F0000B480C4B42189A42F6D30B4A02E00023B8
:1046000042F8043B094B9A42F9D3FFF76BFFFBF7E3
:104610009FFFFFF7CBFD7047000008208050000887
:1046200000000020A0010020A0010020FC4F00207D
:10463000FEE70000014B1868704700BF3001002002
:10464000002310B50446C0E90033836081814366CE
:10465000C281C0E904338361194608225C30FBF74C
:104660009BFF054B6362054BA362054BE362054B61
:104670002462236310BD00BF89490008AB490008CC
:10468000E3490008074A0008014900F085B800BF67
:10469000E14C000870B54A1E682555430E4605F1E9
:1046A000740100F0A3F8044640B10021C0E90016EF
:1046B0000C30A06005F16802FBF76EFF204670BD6C
:1046C000836910B5044633BBC0E912330365124B4E
:1046D000124A1B688262984204BF0123836100F082
:1046E0001FF86060204600F01BF8A060204600F034
:1046F00017F80022E06004216068FFF7A1FF0122A3
:104700000921A068FFF79CFF02221221E068FFF751
:1047100097FF0123A36110BD744F0008894600086C
:10472000F8B51B4B1E68B369074613B93046FFF74F
:10473000C7FF4836D6E90134013B03D5336833B1AE
:104740003668F7E7B4F90C506DB16834F4E704212A
:104750003846FFF79FFF30600028F1D10C233B6003
:1047600004462046F8BD0B4B6566C4E90055A560BC
:10477000C4E90335C4E905550822294604F15C0063
:10478000FBF70AFFC4E90D55C4E91255E9E700BF7C
:10479000744F00080100FFFF2DE9F8438046894669
:1047A00000F14804002614B93046BDE8F883D4E986
:1047B0000175013F01D52468F5E7AB89012B07D9C5
:1047C000B5F90E30013303D029464046C8470643A9
:1047D0006835EEE710B5431E0A44914200D110BD82
:1047E00011F8014B03F8014FF7E7000070B5CD1C3D
:1047F00025F0030508350C2D38BF0C25002D064685
:1048000001DBA94203D90C233360002070BD00F006
:1048100007FB214A1468214691B9204C23681BB933
:10482000304600F0A1F820602946304600F09CF8A0
:10483000431C24D10C233360304600F0F2FAE4E745
:104840000B685B1B18D40B2B0FD90B60CD50CC1809
:10485000304600F0E6FA04F10B00231D20F00700BB
:10486000C31AD3D05A42E250D0E78C424B6816BFED
:10487000636013600C46EBE70C464968CCE7C41C48
:1048800024F00304A04205D0211A304600F06CF851
:104890000130CFD02560DBE74041002044410020BB
:1048A00070B50E46054618B183690BB9FFF708FFCE
:1048B000AB69AC6813B92846FFF702FF234B9C4253
:1048C00017D16C68A3891B071DD52369DBB1013E95
:1048D000A36816F8011F013BA360E9B9002B2EDA8B
:1048E00022460A21284600F093F8013011D00A2010
:1048F00011E0174B9C4201D1AC68E3E7154B9C4299
:1049000008BFEC68DEE72146284600F0E5F80028FD
:10491000DDD04FF0FF3070BD002B04DAA2699A425F
:1049200006DC0A2904D023685A1C22601970CFE7DC
:104930002246284600F06CF80130C9D1E9E7236827
:104940000A205A1C22601870E5E700BF30500008AA
:104950005050000810500008024B01461868FFF73D
:104960009FBF00BF3001002038B5064C002305462C
:1049700008462360FBF71EFF431C02D1236803B1E6
:104980002B6038BDF84F002010B50C46B1F90E1061
:1049900000F096FA0028ABBF636DA3891B1823F4BF
:1049A0008053ACBF6365A38110BD2DE9F0411F4664
:1049B0008B89DB0505460C46164605D502230022E9
:1049C000B1F90E1000F0B6F9A389B4F90E1023F472
:1049D0008053A38132463B462846BDE8F04100F0B3
:1049E00069B810B50C46B1F90E1000F0A3F9431CDC
:1049F000A38915BF606523F4805343F48053A381DA
:104A000018BFA38110BDB1F90E1000F0D3B800009B
:104A1000F8B50E461446054618B183690BB9FFF781
:104A20004FFE214B9C422AD16C68A369A360A389E5
:104A30001A072ED5236963B323692068C01A6369F6
:104A4000F6B28342374604DC2146284600F048F996
:104A500028BBA368013BA36023685A1C22601E7018
:104A600063690130834204D0A389DB0719D50A2E7C
:104A700017D12146284600F033F990B10FE00B4BD7
:104A80009C4201D1AC68D0E7094B9C4208BFEC685E
:104A9000CBE72146284600F01FF80028CCD04FF085
:104AA000FF373846F8BD00BF3050000850500008AE
:104AB0001050000838B5074C05460846114600223C
:104AC00022601A46FBF721FE431C02D1236803B182
:104AD0002B6038BDF84F0020324B70B51D6806467C
:104AE0000C4625B1AB6913B92846FFF7E9FD2E4BFB
:104AF0009C420FD16C68B4F90C309AB215072CD4D3
:104B0000D00611D40922326043F04003A3814FF054
:104B1000FF303EE0254B9C4201D1AC68EBE7244BD3
:104B20009C4208BFEC68E6E7510712D5616B41B1C2
:104B300004F14403994202D0304600F073F9002397
:104B40006363A38923F02403A381002363602369A3
:104B50002360A38943F00803A38123694BB9A38988
:104B600003F42073B3F5007F03D02146304600F0F4
:104B700017F9A28912F001030CD00023A360636926
:104B80005B42A361236953B9B4F90C3013F0800080
:104B9000BAD170BD920758BF6369A360F2E70020E5
:104BA000F7E700BF300100203050000850500008E7
:104BB0001050000838B5064C00230546084623600F
:104BC000FBF7D2FD431C02D1236803B12B6038BD33
:104BD000F84F00208A892DE9F041054610070C4660
:104BE00058D44B68002B05DC0B6C002B02DC00203A
:104BF000BDE8F081E66A002EF9D0002312F480525D
:104C00002F68216A2B6032D0606DA3895A0705D5C1
:104C10006368C01A636B0BB1236CC01A0023024691
:104C2000E66A216A2846B047431CA38906D1296851
:104C30001D2948D8294ACA40D60744D500226260B7
:104C4000D9042269226004D5421C01D12B6803B922
:104C50006065616B2F600029C9D004F1440399425B
:104C600002D0284600F0DEF800206063C0E7012390
:104C70002846B047411CC8D12B68002BC5D01D2B3E
:104C800001D0162B01D12F60B1E7A38943F0400377
:104C9000A381ADE70F69002FA9D093070E6808BF65
:104CA0004B690F6018BF0023A6EB07088B60B8F1B3
:104CB000000F9CDD43463A46216AA66A2846B04763
:104CC000002806DCA38943F04003A3814FF0FF30A6
:104CD0008EE70744A8EB0008E9E700BF0100402089
:104CE00038B50B6905460C46DBB118B183690BB9C1
:104CF000FFF7E6FC0C4B9C4209D16C68B4F90C3010
:104D00007BB121462846BDE83840FFF763BF074B1B
:104D10009C4201D1AC68F1E7054B9C4208BFEC68AE
:104D2000ECE7002038BD00BF3050000850500008AC
:104D30001050000838B5074C0546084611460022B9
:104D400022601A46FBF7CFFC431C02D1236803B153
:104D50002B6038BDF84F002070B50E46B1F90E102B
:104D6000002996B014461D4607DA00232B60B3894C
:104D70001A0610D44FF480630EE06A4600F0B2F8D1
:104D80000028F2DB019A02F47042A2F500535A4265
:104D90005A412A60EEE740230020236016B070BD20
:104DA0008B8973B59D0706460C4607D504F147036A
:104DB000236023610123636102B070BD01AB6A46C9
:104DC000FFF7CAFF009905463046FFF70FFD48B9C7
:104DD000B4F90C309A05EFD423F0030343F0020337
:104DE000A381E3E70D4BB362A389206043F0800306
:104DF000A381009B6361019B20615BB1B4F90E103C
:104E0000304600F081F828B1A38923F0030343F072
:104E10000103A381A3891D43A581CDE7894600082D
:104E20007047704738B50546002945D051F8043C15
:104E30000C1F002BB8BFE418FFF7F2FF1F4A1368DE
:104E4000104633B9636014602846BDE83840FFF768
:104E5000E8BFA3420CD921686218934204BF1A68C4
:104E60005B68636004BF521822600460ECE713467D
:104E70005A680AB1A242FAD919685818A0420BD14F
:104E800020680144581882421960DDD110685268C8
:104E90005A6001441960D7E702D90C232B60D3E78D
:104EA000206821188A4204BF11685268626004BFFA
:104EB000091821605C60C7E738BD00BF4041002091
:104EC00038B5074C054608461146002222601A46AE
:104ED000FBF7B2FB431C02D1236803B12B6038BD42
:104EE000F84F002038B5074C002305460846114608
:104EF0002360FBF7A4FC431C02D1236803B12B60A1
:104F000038BD00BFF84F002038B5064C00230546D9
:104F100008462360FBF7F8FD431C02D1236803B168
:104F20002B6038BDF84F0020F8B500BFF8BC08BCB6
:104F30009E467047F8B500BFF8BC08BC9E46704757
:104F4000000610160006101600500008813F0008E9
:104F5000000000000000000000020000000000004F
:104F60000000000001020304060708090000000019
:104F700001020304340100203A73656D69686F73A0
:104F800074696E672D6665617475726573003A7435
:104F90007400000049444C4500000000436F6D65FB
:104FA000C3A76F7520436F6E74726F6C6C6572214E
:104FB000000000004F63757061646F210000000005
:104FC0004572726F2100000048414C5F54494D45C5
:104FD0004F55542100000000436F6D65C3A76F75E6
:104FE0002070726F6772616D61210000436F6D65A3
:104FF000C3A76F75204F7574707574210000000091
:10500000436F6E74726F6C6C65725461736B0000E9
:105010000000000000000000000000000000000090
:105020000000000000000000000000000000000080
:105030000000000000000000000000000000000070
:105040000000000000000000000000000000000060
:105050000000000000000000000000000000000050
:105060000000000000000000000000000000000040
:0850700000B2FF7F0100000007
:045078002502000805
:04507C000102000825
:105080000100000010000000AAAAAAAA0024F4004F
:10509000CF662441787A244100000000000000001F
:1050A000C6DB3AC09E08623BDA59343DCB8209BC6C
:1050B00084BD093C931ADA38F46B3F3FBB7CB33FA5
:1050C00003782BBF6D39973BB2BE013DC573B6B8AF
:1050D000C573B638C630A73C9C53C936E65A703FF4
:1050E0000F607D3F17483A40C284513B46B633BDFE
:1050F0007E3B093C290909BCA48C38B7FDBF3EBFE3
:105100009623B43FB0542B3F525F963B344801BDC9
:10511000C573B638C573B6B8C899A6BCA8A78FB969
:105120004E7E6FBF1B497E3FDEE4373D81B3243E98
:10513000DB511C3D27BE6A3EB378B13CE1B7813DEF
:10514000F77560BC30621F386F9EEA3B45F1AA3CA0
:105150004B93D23C1FDAC73BDC12B9391970963C2D
:1051600093E4F93DDC299DBCBD378637755A37BDC0
:1051700041F4243EB8231CBD08ABB13C643F6B3EF8
:105180001ADD813DCEC55F3CB5FE1638A9F6E9BBF8
:105190007A36AB3CBD71D2BC1399B9391004C83B07
:1051A000AC3B96BCEAEBF93DD6A79C3CBD378637B5
:1051B000340100200000000030500008505000086A
:1051C0001050000800000000000000000000000077
:1051D00000000000000000000000000000000000CF
:1051E00000000000000000000000000000000000BF
:1051F00000000000000000000000000000000000AF
:10520000000000000000000000000000000000009E
:1052100000000000ADDEFECAFFFFFFFFFFFFFFFF43
:04000005080045E1C9
:00000001FF
